:020000040800F2
:100000005056002049020008D52A00089126000811
:10001000D12A0008E507000869390008000000003F
:10002000000000000000000000000000A12C0008FB
:100030002F08000800000000E12A0008B133000882
:1000400063020008630200086302000863020008FC
:1000500063020008630200086302000863020008EC
:10006000630200083108000837080008630200082E
:100070001708000863020008630200086302000812
:10008000630200086302000863020008F307000827
:10009000E707000863020008630200083D08000843
:1000A000630200086302000863020008630200089C
:1000B000A13400086302000863020008630200081C
:1000C000630200086302000863020008630200087C
:1000D0006302000851390008630200085D39000816
:1000E000630200086302000863020008630200085C
:1000F000630200086302000863020008630200084C
:10010000630200086302000863020008630200083B
:10011000630200086302000863020008630200082B
:10012000630200086302000863020008630200081B
:100130006302000863020008630200080B0800085D
:10014000FF0700086302000863020008630200085A
:100150006302000863020008230800086302000825
:1001600063020008630200086302000863020008DB
:100170006302000863020008630200080000000038
:10018000630200086302000800F002F800F04CF877
:100190000AA090E8000C82448344AAF10107DA45E2
:1001A00001D100F041F8AFF2090EBAE80F0013F0E8
:1001B000010F18BFFB1A43F0010318471069000034
:1001C000306900000A4410F8014B14F00F0508BF15
:1001D00010F8015B240908BF10F8014B6D1E05D013
:1001E00010F8013B6D1E01F8013BF9D1641E03D0EC
:1001F000641E01F8015BFBD19142E4D3704700001B
:100200000023002400250026103A28BF78C1FBD81F
:10021000520728BF30C148BF0B6070471FB506F0BA
:100220000EF81FBD10B510BD00F05AF91146FFF7CA
:10023000F5FF03F0C3FF00F078F903B4FFF7F2FF16
:1002400003BC00F07BF900000948804709480047DB
:10025000FEE7FEE7FEE7FEE7FEE7FEE7FEE7FEE776
:10026000FEE7FEE704480549054A064B70470000D3
:100270008F3400088901000850500020505600209B
:10028000505200205052002053EA020C00F06980C6
:100290002DE9F04B4FF00006002B1FBFB3FA83F59A
:1002A00003FA05F424FA05F65E4012BF1643B2FACB
:1002B00082F502FA05F4C5F120051EBF22FA05FCFD
:1002C00044EA0C04203556EA044C4FEA144418BFA3
:1002D000641C4FF000084FF00009904271EB030CD2
:1002E00039D3002919BFB1FA81F701FA07F6B0FA3C
:1002F00080F700FA07F6C7F120071EBF20FA07FCB7
:1003000046EA0C062037B6FBF4FCA7EB0507103FC6
:1003100007F01F0BCBF120062CFA06F60CFA0BFBAC
:1003200044BFB3460026202FA4BF5E464FF0000B0B
:100330005BEA060C08BF4FF0010B19EB0B0948EB09
:100340000608ABFB027C06FB02CC0BFB03CCC01BFC
:1003500071EB0C01C1E70B46024641464846BDE839
:10036000F08B13B5084318BF4FF0FF300146AFF3D1
:100370000080BDE81C407047431A28BF9A4240F2F3
:1003800075801044114410F0030F1EBF11F8013D99
:10039000521E00F8013D10F0030F7FF4F6AF103A43
:1003A000C0F00A8010B531E9185020E91850103A11
:1003B000BFF4F9AFBDE81040530724BF31E908107E
:1003C00020E9081044BF51F8043D40F8043D12F004
:1003D000030F08BF7047D20728BF31F8023D48BF5E
:1003E00011F8012C28BF20F8023D48BF00F8012C6D
:1003F000704702F0FF0343EA032242EA024200F0A0
:1004000002B84FF0000200B51346944696462039D4
:1004100022BFA0E80C50A0E80C50B1F12001BFF4BD
:10042000F7AF090728BFA0E80C5048BF0CC05DF823
:1004300004EB890028BF40F8042B08BF704748BF71
:1004400020F8022B11F0804F18BF00F8012B7047E5
:1004500070477047704710B500F03AF8006810BD5B
:1004600010B5044600F034F8046010BD10B5203A11
:10047000C0F00B80B1E81850A0E81850B1E818504F
:10048000A0E81850203ABFF4F5AF5FEA027C24BF21
:10049000B1E81850A0E8185044BF18C918C0BDE80A
:1004A00010405FEA827C24BF51F8043B40F8043BD3
:1004B00008BF7047D20728BF31F8023B48BF11F888
:1004C000012B28BF20F8023B48BF00F8012B7047E2
:1004D00000487047080200200048704708020020CA
:1004E0007546FFF7F9FFAE4605006946534620F012
:1004F0000700854618B020B5FFF7B4FEBDE82040E0
:100500004FF000064FF000074FF000084FF0000BCF
:10051000AC46ACE8C009ACE8C009ACE8C009ACE83E
:10052000C00921F007018D46704710B50446AFF3AE
:1005300000802046BDE81040FFF77FBE014918202B
:10054000ABBEFEE726000200704704F0EFBF05F0E7
:1005500083B803F00ABA08B100210160704718B1EE
:100560000021C4F2B01101607047B0EE401AB1EE44
:10057000C00AB4EE400AF1EE10FA04D6B7EE001A43
:1005800081EE000A704780B5B0EE410A05F0BAF975
:10059000BDE88040F2E703F03CBA10B503F08AFAF8
:1005A000044603F05DFB0443052003F01BFC41F20D
:1005B0004C01C2F2000142F2172001F1140E032295
:1005C0004FF0FF334FF0000C8EE80D002046C1E9DC
:1005D0000823C1F828C010BD2DE9F04782B00027DC
:1005E0008146C4F20207002090468A46CDE9000009
:1005F00038461021002200F09BFE40F61860C2F23F
:100600000000922102F0D0FA6E46122031460622F6
:1006100000F0CEF838461021012200F089FEBDF826
:10062000000041F24C05DDF80210C2F2000507F5AA
:1006300080642880C5F8021020460121002200F0C5
:1006400077FE00203146082200F0B2F82046012152
:10065000012200F06DFE9DF800000F281AD19DF8D0
:1006600002009DF803109DF8042040EA0120D5E91E
:1006700008169DF80530401AE88142EA03209DF8EB
:1006800007109DF80620AC6A801B288242EA0120F0
:10069000001B6882384610210022002400F048FE2A
:1006A00040F61860C2F20000A22102F07DFA69460D
:1006B0002220022200F07CF838461021012200F0AE
:1006C00037FE688A9DF8001003B280EAE3379DF890
:1006D0000120A7EBE3339BB2C900132B41EA52126E
:1006E0004FF600039CBF6C820020CFF6FF73B4EB83
:1006F000912F18BF1A4300EE102AB8EEC00AB4EECC
:10070000001A20EE010AB3EE071AB5F9001030EE18
:10071000010A88ED000A00EE101A40F21001C2F240
:10072000000191ED001AB8EEC00AB5F90220B5F942
:10073000043021EE000A8AED000A00EE102A91ED45
:10074000001A02EE103AB5F90E70B8EEC00AB8EE13
:10075000C22A40F2140121EE000A21EE021AC2F26E
:1007600000018AED010A8AED021A00EE107A91ED7D
:10077000001AB8EEC00A21EE000AB5F9102089ED82
:10078000000A00B200EE102A91ED001A02EE100AE3
:10079000B8EEC00AB8EEC22A21EE000A21EE021A13
:1007A00089ED010A89ED021A02B0BDE8F087000068
:1007B00070B50D4640F0800140F61860C2F20000AE
:1007C000144602F0F1F964B140F61866C2F2000670
:1007D0003046552102F0E8F9013C210605F8010BED
:1007E000F6D170BDFEE740F6E440C2F2000000F032
:1007F000BDB840F6E440C2F2000000F0B7B840F6E1
:100800000C50C2F2000000F0B1B840F60C50C2F239
:10081000000000F0ABB840F6B850C2F2000000F0A3
:1008200041BB40F65850C2F2000000F03BBB70479D
:10083000082000F0A0BC102000F09DBC80B5202056
:1008400000F099FC402000F096FC8020BDE880403C
:1008500000F091BCEFF3108072B600BFFEE7704766
:1008600010B590F82040013C012C70D8D0F800C0A1
:1008700000290CBFDCF80C40DCF81040A4076CD059
:100880000CEB011CDCF8B0410CF5D87E14F004042C
:100890009460DCF8B04119BFE4085460640D146042
:1008A000DEF80040002904F00204D460DCF8B44112
:1008B00004F00F041461DCF8B441C4F3072494611C
:1008C000DCF8B4414FEA14445461DCF8B8211A70E2
:1008D000026802EB0112D2F8B8214FEA12225A70D4
:1008E000026802EB0112D2F8B8214FEA12429A7064
:1008F000026802EB0112D2F8B8214FEA1262DA70F4
:10090000026802EB0112D2F8BC211A71026802EBF4
:100910000112D2F8BC214FEA12225A71026802EB8E
:100920000112D2F8BC214FEA12429A71026802EB1E
:100930000112D2F8BC214FEA1262DA7100680CBFD2
:1009400000F10C0100F11001002020220AE000F16A
:10095000240101204FF4802204E000F12401012051
:100960004FF400120B681A430A6010BD2DE9F04FD6
:1009700081B0044600684669D0F804908768D0F8D2
:100980000CB0D0F810A0D0F81880F10701D10025E4
:1009900049E0F9070ED00121BA07816007D4780732
:1009A0001DD4380721D4204600F022FA02E0204668
:1009B00000F01FFA0025F8051CD520684FF480715F
:1009C000BA05816007D478050CD4380510D42046C8
:1009D00000F010FA0EE0204600F00DFA0AE04FF4A5
:1009E0000065E8E705F5005504E04FF48055E2E7BF
:1009F00005F58045F80316D520684FF48031BA0319
:100A0000816007D4780309D438030AD4204600F063
:100A1000F3F908E0204600F0F0F904E005F50045A0
:100A200001E005F58035300707D51BF0100004D034
:100A3000206845F400751021C160700708D51BF0CF
:100A4000080005D020680821C160204600F096F912
:100A5000B00706D52068C068800702D0204600F0A5
:100A60008EF9700607D51AF0100004D0206845F4FE
:100A7000806510210161B00608D51AF0080005D084
:100A8000206808210161204600F0AFF9F00606D584
:100A900020680069800702D0204600F0A7F9B00363
:100AA00008D519F0100005D02068102141602046BB
:100AB00000F09DF9F00308D519F0080005D0206872
:100AC00008214160204600F099F9300440D55FEAE2
:100AD00049703AD506F4807008EA102028435FEA8E
:100AE0008871014648BF41F00201B20558BF014676
:100AF0005FEA48700D4648BF45F00405700558BFD1
:100B00000D46300521D518F070001ED010380009B0
:100B1000052815D8DFE800F00306090C0F1245F090
:100B200008050DE045F010050AE045F0200507E056
:100B300045F0400504E045F0800501E045F480758E
:100B40002068816921F07001816120680421416081
:100B50004DB1606A40EA05012046616201B0BDE81E
:100B6000F04FFFF77CBE01B0BDE8F08FB0B5C8B163
:100B7000044690F8200010B9204600F06FF8206875
:100B8000016841F00101016000F0D7FB054600BF9C
:100B900020684168C90707D100F0CFFB401B0B2834
:100BA000F6D312E00120B0BD016821F0020101601E
:100BB00000F0C3FB054600BF2068416889070BD5DC
:100BC00000F0BBFB401B0B28F6D3606A052140F404
:100BD0000030606201203EE0217E0268012922F09F
:100BE000800208BF80320260617E0268012922F023
:100BF000400208BF40320260A17E0268012922F053
:100C0000200208BF20320260E17E0268012922F042
:100C1000100218BF10320260217F0268012922F001
:100C2000080208BF08320260617F0268012922F0D1
:100C3000040208BF04320260D4E901C2D4E90335DA
:100C400061691A432A431143ACF101021143C161A6
:100C500000200121606284F82010B0BDB0B586B0DC
:100C6000044601A81421FFF7CCFB206846F60001DA
:100C7000C4F20001884231D046F20041C4F20001C2
:100C8000884279D140F60441C2F200010A6843F675
:100C90003000C4F20200531C0B6052B900210091D5
:100CA000016941F000710161016901F00071009179
:100CB0000099002100910168142441F008010160AD
:100CC0000068132500F008000090009840F20040F2
:100CD000C4F2020000F50060032131E043F6300069
:100CE0000021C4F202000091026942F080620261B8
:100CF000026902F080620092009A40F60442C2F259
:100D0000000213685D1C15604BB90091026942F046
:100D100000720261026902F000720092009A009172
:100D20000168402441F00201016000683F2500F0A5
:100D300002000090009840F200406021C4F20200DE
:100D400001910221029100210391032104910921C3
:100D5000059101A900F01AFA28460521002200F0A9
:100D6000A3FB284600F08EFB20460521002200F060
:100D70009BFB204600F086FB06B0B0BD7047B0B5C7
:100D8000016846F60002C4F20002914216D046F213
:100D90000042C4F20002914218BFB0BD40F6345484
:100DA000C2F2000404F11C05002122462B46FFF785
:100DB00057FD40F25812C2F2000210E040F63454DF
:100DC000C2F2000404F11C05002122462B46FFF765
:100DD00047FD40F25810C2F2000000F11802204610
:100DE0002946BDE8B04003F06BB8704770477047C4
:100DF00070477047704770477047704770470000F2
:100E000070B5866D044600F098FA94F83510022902
:100E100025D105462068216C026822F01602026086
:100E2000426922F08002426109B9A16C19B10168DE
:100E300021F008010160016821F00101016000BF9B
:100E400020680068C0070ED000F077FA401B062823
:100E5000F6D320206065032084F835000CE0802064
:100E60006065012008E0E06D3F2101FA00F0B0600C
:100E7000012084F835000020002184F8341070BD72
:100E800090F83510022909D1052180F83510006845
:100E9000016821F001010160002070478021416557
:100EA00001207047F0B581B004460020009040F268
:100EB0008810C2F200000268D4E9166048F2B51347
:100EC00037680821C1F64E3381403942A2FB032521
:100ED0000CD0226813685B0708D5136823F004035D
:100EE0001360B160616D41F00101616501218140D4
:100EF000394208D022685269120604D5B160616D8A
:100F000041F00201616504218140394208D0226824
:100F10001268920704D5B160616D41F0040161650A
:100F200010218140394217D020680268120713D57A
:100F3000B16002680168520306D4C90506D401688D
:100F400021F00801016001E0080301D4216C00E0F8
:100F5000A16C09B120468847E16D202000FA01F21A
:100F60003A423CD020680368DB0638D5B26094F87A
:100F700035300268052B1AD122F016020260426950
:100F800022F080024261226C0AB9A26C1AB1026896
:100F900022F0080202603F208840B060012084F8FF
:100FA0003500216D002084F83400B9BB3BE00168B6
:100FB00052030CD4C9050ED4016821F01001016060
:100FC000012084F83500002084F8340003E0080391
:100FD00001D4616C00E0E16B09B120468847606D87
:100FE00008B3606DC00717D0052084F8350020686D
:100FF000A90A026822F00102026000BF009A0132D1
:101000008A42009202D80268D207F7D1012084F800
:101010003500002084F83400E16C21B1204601B095
:10102000BDE8F040084701B0F0BD00002DE9F041F7
:10103000044600F082F9C4B10546022084F8350068
:101040000020216884F83400086820F0010008605E
:1010500021680868C0070BD000F06FF9401B052815
:10106000F6D903252023032064E00120BDE8F081A8
:10107000086848F23F02CFF21002D4E9013500EAD5
:10108000020C04F10C0898E8C10143EA0C032B435D
:101090001843D4E9072E304338431043626A40EACC
:1010A0000E00042A40EA08031CD1206BD4E90A2E62
:1010B00040EA0E00184308604869BEF1000F20F0B6
:1010C000030040EA020040F0040C11D0B8F5005FC4
:1010D00035D0B8F1000F42D1022A43D0012A38D0CE
:1010E000002A3EE00B60486920F0070040EA020C4D
:1010F00001F0F8004AF6AB221038CAF6AA22A0FB8B
:1011000002231A0946F29023C0F600039A5C40F2CB
:10111000FF335F284FF03F00C1F814C021EA0301FC
:1011200000FA02F088BF0431C4E916128860002377
:1011300001250020636584F83550BDE8F081032A5D
:10114000D6D8012540230120DFE802F0020C02037B
:10115000F0E7AEF1C070B0FA80F0400904E0032A75
:1011600004D3C5D1CEF300600028C1D001254023AF
:101170000120DFE7704743F61441C4F201010A6819
:10118000024214BF08607047FFF7F4BF2DE9F04F2B
:1011900082B000F13E4241F6004502F1FF77C4F211
:1011A0000205082243F6004E4FEAB726A84208BFC0
:1011B0000722C4F2010E072E38BF4FEAB7220125DD
:1011C000002600274FF00008009200BF0C6805FAC7
:1011D00008F914EA090F00F09F80D1F804B0032247
:1011E0000BF0030CACF10104B240012C6FEA020ACF
:1011F00010D88268CC6802EA0A02B44022438260B6
:101200004268CBF3001422EA090204FA08F42243EC
:10121000426005E0BCF1030F02D14FF0030C20E067
:10122000C2688C6802EA0A02B4402243BCF1020F91
:10123000C26016D16FF0030202EA58020244D2F8EB
:1012400020C007F01C050F230C69AB402CEA0303F8
:1012500004FA05F52B431362D1F804B001250BF015
:10126000030C02680CFA06F302EA0A021A431BF4A2
:10127000403F026050D0002243F644030192C4F282
:1012800002031A684FF6084C42F480421A601A684A
:10129000CFF6FF7C02F480420192019A28F003020B
:1012A000724452F80C3007F00C050F24AC40A343F5
:1012B000009C04FA05F52B4342F80C30DEF80820B8
:1012C0004B6842EA090543F60C4CDC0258BF22EA9F
:1012D0000905CEF80850C4F2010CDCF800209C028D
:1012E00042EA090558BF22EA0905CCF80050DEF8A9
:1012F00004209C0342EA090558BF22EA0905CEF8FA
:101300000450DEF80020DB0342EA090558BF22EA58
:101310000905CEF80050012508F101080437B8F19D
:10132000100F06F102067FF451AF02B0BDE8F08F56
:10133000002A08BF09048161704744F64450C2F294
:1013400000000068704740F2F81044F64451C2F2C1
:101350000000C2F2000100780A681044086070477B
:1013600080B543F60040C4F20200016841F4007108
:101370000160016841F480610160016841F480719D
:101380000160032000F0BBF80F2000F004F800F02B
:1013900058F8002080BD70B586B0002543F64001A6
:1013A0000195C4F202010A68044642F001020A6093
:1013B000096801A801F0010101910199694600F055
:1013C00056F9049E002E18BF012600F06FF94DF665
:1013D0008361B040C4F21B31A0FB01014FF0FF302C
:1013E00000EB914140F6B860C2F200004FF080423D
:1013F00040F2E733C0E90021C0E90253056185618D
:1014000000F0F1FC0546C8B940F6B860C2F2000031
:1014100000F02EFD054688B91C2000F033F80F2C93
:101420000BD81C2021460022002500F03DF840F298
:10143000FC10C2F20000046000E00125284606B05E
:1014400070BD82B0002043F640010190C4F2020159
:101450004A6842F480424A604A6802F4804201923B
:10146000019A00900868002240F0805008600868E7
:101470000F2100F08050009000986FF0010002B042
:1014800000F012B800280ED4C1B200F01F000122F3
:1014900002FA00F04EF20012CEF2000242EAD1014E
:1014A00021F003010860704710B54EF60C5CCEF2D7
:1014B000000CDCF80030C3F3022E8EF00704042C7D
:1014C00028BF0424BEF103034FF0FF3E0EFA04F4DC
:1014D00038BF0023A14399400EFA03F39A43114306
:1014E00000F00F0200F160430901043A03F5644380
:1014F0006244002848BF02F10C03197010BD4EF67B
:101500000C51CEF200010A684FF6FF031A4060F357
:101510000A2242F0806040F0FD70086070470000D1
:101520002DE9F041002878D043F60008C4F2020803
:101530000446D8F800040D4600F00700884207D2A0
:1015400088F80054D8F8000400F00700A84264D1DD
:101550002068810717D5410705D5D8F8081041F450
:10156000E051C8F80810010705D5D8F8081041F473
:101570006041C8F80810D8F80810A26821F0F001FE
:101580001143C8F80810C0073FD1D8F8000400F094
:101590000700A84207D988F80054D8F8000400F0E2
:1015A0000700A84239D12068410707D5D8F80810AC
:1015B000E26821F4E0511143C8F80810000708D58B
:1015C000D8F80800216920F4604040EAC100C8F85A
:1015D000080000F091F8D8F8081046F27822C1F31C
:1015E0000311C0F60002515C40F2881220FA01F1AA
:1015F00040F2FC10C2F200000068C2F2000211606A
:10160000FFF7C9FE0020BDE8F0816068811E022955
:1016100006D2D8F80010890108D40120BDE8F08175
:1016200001281FD1D8F800108903F6D5D8F8081082
:1016300021F003010843C8F80800FFF77EFE0646C4
:1016400041F28837D8F80800616800F00C00B0EB70
:10165000810F9AD0FFF771FE801BB842F2D90320A8
:10166000BDE8F081D8F800108907D6D5DEE70F2253
:10167000026043F60802C4F20202136803F0030397
:101680004360136803F0F0038360136803F4E053CE
:10169000C360D2F800C04FF4E05303EADC030361F7
:1016A000D2F8F80300F007000860704740F2881095
:1016B00043F60801C2F20000C4F2020100680968A2
:1016C00046F28822C1F38221C0F60002515CC84074
:1016D000704740F2881043F60801C2F20000C4F2DD
:1016E00002010068096846F28822C1F34231C0F65F
:1016F0000002515CC840704710B543F60404C4F2C0
:101700000204606800F00C0008280AD0042819BF01
:1017100042F20040C0F2F40041F60030C0F2B700DF
:1017200010BD206821682368490241F60031C0F2EB
:10173000B70100F03F02C3F388105CBF42F20041E2
:10174000C0F2F401A1FB00010023FEF79DFD21681A
:101750000222C1F3014102EB4101B0FBF1F010BDE7
:101760002DE9F04182B0002866D00446007843F6A7
:101770000006C007C4F202060BD0B06800F00C00EF
:10178000042840F098803068800302D56068002803
:1017900052D0207880071AD5B06810F00C0F09D00D
:1017A000B06800F00C00082840F09F80706840028C
:1017B00000F19B803068800702D5E06801283BD1AA
:1017C0003068216920F0F80040EAC10030602078DC
:1017D000000733D42078400747D4A56955B3B068D3
:1017E00000F00C00082840F0B380012D24D0706870
:1017F000E16900F480028A421ED1216A00F03F02B2
:101800008A4219D147F6C071626A0140B1EB821F6A
:1018100012D1A16A4FF6FF73C903994300F4403215
:10182000A1F580318A4207D1E16A00F07060B0EB27
:10183000016F01D10020F1E00120EFE06069002894
:1018400040F20000C4F2472072D00121C0F8801E8F
:10185000FFF773FD054600BF706F8007BAD4FFF72E
:101860006CFD401B0228F7D9D7E0306C10F080588F
:101870000AD100200190306C40F080503064306C10
:1018800000F080500190019847F20007C4F2000771
:101890003868C0053ED4386840F480703860FFF77F
:1018A0004CFD05463868C00534D4FFF746FD401BA3
:1018B0000228F7D9B1E0B06800F00C00082803D185
:1018C000706840023FF55FAF6068B0F5803F07D0B9
:1018D000B0F5A02F40F08B80306840F4802030605D
:1018E000306840F4803030608BE0E068002851D0F0
:1018F0000020C4F2472001210160FFF71EFD0546CC
:10190000306880073FF55CAFFFF717FD401B0228EA
:10191000F6D982E0A068012805D005284ED1306FA5
:1019200040F004003067306F40F0010030674FE056
:101930000021C0F8801EFFF700FD0546706F80078C
:101940007FF548AFFFF7F9FC401B0228F6D964E0A9
:101950000027C4F2472700203866FFF7EEFC022D6F
:1019600005460BD1306880015BD5FFF7E6FC401BD4
:1019700002284FF00300F5D950E000BF3068800125
:101980007FF558AFFFF7D9FC401B02284FF003004A
:10199000F4D943E00020C4F2472000210160FFF7A2
:1019A000CCFC0546306880077FF511AFFFF7C5FC1A
:1019B000401B02284FF00300F4D92FE0316F0028BC
:1019C00021F001013167316F21F00401316749D005
:1019D000FFF7B3FC054641F2883700BF306F800740
:1019E00051D4FFF7AAFC401BB842F7D915E0316883
:1019F000002821F480313160316821F48021316088
:101A00004AD0FFF79AFC0546306880033FF5C1AE27
:101A1000FFF793FC401B6428F6D9032002B0BDE811
:101A2000F08104F11C052FCD084340EA8210D90350
:101A30004FF6FF729143A1F5803140EA05600843FB
:101A4000706001203866FFF778FC0446306880013A
:101A50003FF5F0AEFFF771FC001B02284FF00300CA
:101A6000F4D9DBE7FFF769FC054641F2883700BF90
:101A7000306F800707D5FFF760FC401BB8424FF07E
:101A80000300F5D9CAE7B8F1000F7FF4A6AE306CB9
:101A900020F080503064A0E6FFF74FFC054600BF01
:101AA000306880037FF575AEFFF747FC401B642864
:101AB0004FF00300F4D9B1E770B538B10446406A7D
:101AC00030B10020206104F1140007E001264BE052
:101AD0006068B0F5827F03D004F11C000021016032
:101AE0000026A66294F8510020B9204684F8506080
:101AF00000F03CF8022084F8510094E80F0001F453
:101B00008271056802F4044225F040050560114425
:101B100003F400622369114403F002026369114473
:101B200003F00102A369E569114403F40072114452
:101B300005F03802256A114405F08002A56A1143B8
:101B400005F4005211430160626A042101EA134165
:101B500002F0100211444160C16921F40061C161C9
:101B60000120666584F85100304670BD2DE9F043D0
:101B700085B0006843F20005C4F20105A84240D1D7
:101B8000002043F630010090C4F202014A696C461D
:101B900042F480524A614A694FF0020802F48052CE
:101BA0000092009A00900A684FF0010942F0020288
:101BB0000A600A68032602F002020092009A00906E
:101BC0000868052740F0010008600868214600F019
:101BD0000100009000981820009005F55440CDF8C1
:101BE0000480CDF8089003960497FFF7CFFA802081
:101BF0008DE8010305F550402146CDE90367FFF765
:101C0000C5FA05B0BDE8F0832DE9F04381B0044684
:101C100090F85000012801D10220C8E001201E46A2
:101C200015460F4684F85000FFF787FB94F85110D3
:101C3000814601290BD06068B0F5827F73D1A0681E
:101C400000284FF0020008BF042940F0AA80002FAE
:101C50004FF0010000F0A580002D00F0A280002EC2
:101C600000F09F8094F85100002104281CBF05203B
:101C700084F851006165A563E687A6872763E68639
:101C80002068A686216461640168490603D401685E
:101C900041F0400101606168731EE268B1FA81F1B0
:101CA000B3FA83F3DDF8208049095B09B2F5006FD0
:101CB00041EA030139D131B137F8021BC160276312
:101CC000E08E0138E086012608F10105E08E10B9AA
:101CD000E08F00286ED02068816889070CD5E18EDE
:101CE00051B1012E08D1216B002631F8022BC260C0
:101CF0002163E18E0139E1868168C9070AD0E18F4D
:101D000041B1C068A16B012621F8020BA163E08FED
:101D10000138E087FFF711FB002DD7D0A0EB0900B9
:101D20004045D3D33CE002203BE039B13978017320
:101D3000206B01302063E08E0138E086012608F137
:101D4000010500BFE08E08B9E08F98B32068816874
:101D500089070ED5E18E61B1012E0AD1216B0026D3
:101D600009780173216B206801312163E18E01390B
:101D7000E1868168C9070BD0E18F49B1C068A16BCA
:101D800001260870A06B0130A063E08F0138E08766
:101D9000FFF7D3FA002DD5D0A0EB09004045D1D3F1
:101DA0000320012184F85110002184F8501001B063
:101DB000BDE8F083204641464A4600F0C3FE18B114
:101DC000202060650120ECE7A06800284FF00000AB
:101DD000E7D100902168CA68009289680091009953
:101DE000DFE77047704740B310B5044690F83D00F8
:101DF00028B9002084F83C00204600F020F802209A
:101E000084F83D002068211D01F050FB012084F87A
:101E1000460084F83E0084F83F0084F8400084F8CF
:101E2000410084F8420084F8430084F8440084F8B8
:101E3000450084F83D00002010BD0120704781B0AE
:101E4000006844F20041C4F2010188420ED1002032
:101E5000009043F64400C4F20200016841F40031EE
:101E60000160006800F400300090009801B07047F5
:101E700090F83D1001291CBF01207047022180F815
:101E80003D10006841F2FF72C168C4F20002904246
:101E900041F00101C1600BDC40F2FF71C4F20001AE
:101EA000884213DCB0F1804F27D040F2004115E0AA
:101EB00040F2FF31C4F20101884212DC41F6000118
:101EC000C4F20001884218D0002112E040F600015F
:101ED000C4F20001884210D040F60041C4F2000173
:101EE00009E044F20001C4F20101884205D040F249
:101EF0000041C4F20101884204D1816801F0070168
:101F0000062903D0016841F00101016000207047FB
:101F1000704710B5016804460869800744BFC86867
:101F20005FEA807038D40869400744BFC8685FEA38
:101F300040703DD40869000744BFC8685FEA00707C
:101F400043D40869C00644BFC8685FEAC06048D48B
:101F50000869C0071CBFC8685FEAC0704ED1086935
:101F6000000644BFC8685FEA00604FD408694006B5
:101F700044BFC8685FEA406050D40869800646BF25
:101F8000C8685FEA806010BD6FF0200220460A61D9
:101F9000BDE81040FFF726BF6FF002000861012086
:101FA00020778869800741D02046FFF7B1FF43E0E2
:101FB0006FF00400086102202077886910F4407FE8
:101FC0003ED02046FFF7A4FF40E06FF00800086114
:101FD00004202077C86980073CD02046FFF798FF8F
:101FE0003EE06FF01000086108202077C86910F407
:101FF000407F39D02046FFF78BFF3BE06FF00100B8
:102000000861204600F0DCF82168A8E76FF0800046
:1020100008612046FFF7E5FE2168A7E76FF0400062
:102020000861204600F0D3F82168A6E7204600F0BA
:102030004CF8204600F0C3F821680020207772E7B2
:10204000204600F042F8204600F0B9F82168002050
:1020500020776FE7204600F038F8204600F0AFF810
:102060002168002020776CE7204600F02EF82046FB
:1020700000F0A5F821680020207769E780B586B0D8
:10208000016844F20040C4F2010081421BD10021EA
:1020900043F630020191C4F20202136800F5504089
:1020A00043F020031360126802F020020192019AAB
:1020B000402201920222CDE90221049103210591DF
:1020C00001A9FFF763F806B080BD7047B0B50446BC
:1020D00090F83C00012804BF0220B0BD0D464FEA35
:1020E000B2010120032984F83C0037D8DFE801F071
:1020F000020A12222068294601F066FA206850F888
:10210000181F0EE02068294601F090FA206850F868
:10211000181F16E02068294601F0BCFA206850F824
:102120001C1F41F008010160016821F004010160F9
:1021300029690FE02068294601F0DFFA206850F88D
:102140001C1F41F400610160016821F4806101609D
:10215000296909020268114301600020002184F806
:102160003C10B0BD40B310B5044690F83D0028B90E
:10217000002084F83C00204600F020F8022084F87B
:102180003D002068211D01F091F9012084F84600EE
:1021900084F83E0084F83F0084F8400084F8410051
:1021A00084F8420084F8430084F8440084F8450031
:1021B00084F83D00002010BD012070477047704733
:1021C0000068B0F1804F18BF7047FFF7BCB8704788
:1021D00070477047B0B582B0044600680168C368B4
:1021E000426901F02F05202D03F0200506D12DB105
:1021F000204602B0BDE8B04001F0D4BA5FEA017CED
:102200001EBF02F0010E03F4907212EB0E027CD19D
:10221000226B012A05D111F0100218BF13F0100231
:1022200039D10A0623D513F0800220D094F83D104E
:10223000212940F01981A168B1F5805F03D121699E
:10224000002900F01981216A4A1C22620978416044
:10225000E18C01390A04E18440F00681C16821F073
:102260008001C160C16841F04001C160FCE04906E5
:1022700040F1FA8013F0400100F0F680C16821F0CF
:102280004001C1602021204684F83D1002B0BDE825
:10229000B04000F0FBB90021019101680191416853
:1022A000019101994069400600F19080A08DE18D77
:1022B000E28D002A00F0D880884200F0D580401AD4
:1022C000216851E8031F226821F4907142E803134A
:1022D000002BF5D1216851E8051F226821F001018A
:1022E00042E80513002BF5D1202184F83E1000218F
:1022F000216300BF216851E8031F226821F010010B
:1023000042E80313002BF5D1A2E0CA0718BF13F46B
:10231000807203D0226C42F0010222644A0706D583
:10232000BEF1000F03D0226C42F0020222648A0741
:1023300006D5BEF1000F03D0226C42F004022264E5
:10234000BCF1000F09D545EA0E02B2FA82F2520939
:1023500003D1226C42F008022264226C002A00F0B1
:10236000838011F0200118BF002D03D0204601F01A
:1023700019FA20684069216C00F0400001F0080162
:1023800040186CD0204601F0E5F92068406940060D
:102390006CD500BF206850E8050F216820F0400090
:1023A00041E80502002AF5D1A06B00285ED043F277
:1023B0004971C0F600010165FEF762FD002853D0A7
:1023C000A06B016D02B0BDE8B0400847A16B086882
:1023D000426893B2002B47D0A08D834244D2E2855D
:1023E000C969B1F5807F31D0206850E8030F2168BA
:1023F00020F4807041E80302002AF5D1206850E8FB
:10240000050F216820F0010041E80502002AF5D1FE
:10241000206850E8050F216820F0400041E80502DF
:10242000002AF5D1202084F83E000020206300BF60
:10243000206850E8030F216820F0100041E80302F3
:10244000002AF5D1A06BFEF7DBFCA08DE18D401AD0
:1024500081B2204602B0BDE8B040FFF7B9BE2046C9
:10246000FFF7B7FE0020206402B0B0BD204602B0E6
:10247000BDE8B040FFF7ADBE216A31F8022B6FF323
:102480005F2242602162E3E650B310B5044690F843
:102490003D0028B9002084F83C00204600F022F8D6
:1024A000242084F83D002068C16821F40051C160F7
:1024B000204601F0D9F92068016921F490410161B9
:1024C000416921F02A014161C16841F40051C160B4
:1024D00000202021206484F83D1084F83E1010BDB7
:1024E000012070472DE9F04786B0044601A8142169
:1024F000FDF787FF206844F60001C4F2000188421E
:102500006DD041F20001C4F20101884240F0BA806E
:10251000002743F630000097C4F20200416900250D
:1025200041F0100141614169C4F2020501F010015E
:10253000009100990097016801AE41F0020101602D
:1025400001684FF0020801F0020100910099009724
:1025500001684FF0030941F00101016000684FF08C
:10256000070A00F00100009000988020019005F516
:1025700080603146CDE90287CDF81090CDF814A0E7
:10258000FEF704FE4FF40070CDE9010803A880E8CF
:10259000800628463146FEF7F9FD46F22800C4F2CF
:1025A000020040F6585500F59260C2F200054FF067
:1025B000006140224FF4806385E8870005F1140034
:1025C00014212B61FDF71DFF2846FEF72FFD08B1F2
:1025D000FEF740F9656305F13800252549E000263E
:1025E00043F630000096C4F20200016941F48021F4
:1025F0000161016901F48021009100990096016850
:1026000041F004010160006801A900F0040000909D
:1026100000984FF4406001900220CDE902060320AB
:102620000490072005900020C4F2020000F500602D
:10263000FEF7ACFD40F6B85546F22800C2F20005A0
:10264000C4F202004FF000614FF4806285E843005D
:1026500005F114001421C5E90362FDF7D2FE2846F6
:10266000FEF7E4FC08B1FEF7F5F8A56305F13800C4
:1026700027250460284605210022FEF715FF28467D
:10268000FEF700FF06B0BDE8F08770477047000016
:10269000FEE780B540F6E44046F20041C2F2000099
:1026A000C4F200010322002380E80E0000F10C01B7
:1026B0004FF4102C4FF4001E81E808504FF4807145
:1026C0000183C0F81A30FEF751FA18B1BDE8804016
:1026D000FEF7C0B880BD80B540F60C5046F600014C
:1026E000C2F20000C4F200010322002380E80E00C1
:1026F00000F10C014FF4102C4FF4001E81E808503B
:102700004FF480710183C0F81A30FEF72FFA18B128
:10271000BDE88040FEF79EB880BD80B582B0002045
:1027200043F630010190C4F202010A6842F400123B
:102730000A600A6802F400120192019A0090086887
:10274000002240F4800008600868052100F4800041
:10275000009000980C20FEF7A7FE0C20FEF792FEDA
:10276000462005210022FEF79FFE462002B0BDE86C
:102770008040FEF787BE000080B588B00B4802AFEE
:1027800001900AA000F1040E9EE80E50806987E8CF
:102790000E50079001A8002101F045FD41F278019B
:1027A000C2F20001086008B080BD00BF9C6A00084A
:1027B000C52C00080300000000000000000100001C
:1027C00000000000000000002DE9F04F87B0002459
:1027D00043F63000CDE905440194C4F202000168DB
:1027E00040F2000841F0020101600168C4F20208F1
:1027F00001F00201019101990194016808F5006955
:1028000041F0010101600168002201F00101019124
:102810000199019401684FF4807B41F00801016047
:10282000016801F00801019101990194016841F0EA
:1028300004010160016801F0040101910199019412
:10284000016841F480710160016801F480710191B7
:1028500001990194016841F080010160016801F073
:102860008001019101990194016841F040010160EA
:10287000016801F04001019101990194016841F062
:102880002001016000684FF4807100F02000019089
:1028900001984846FEF74CFD08F5C05630464021E9
:1028A00001220125FEF744FD404610210022FEF7DB
:1028B0003FFD08F5806A504641F201010022FEF713
:1028C00037FDC02002904FF4881002AFCDE9030419
:1028D00008F500503946FEF759FC48463946CDE91F
:1028E00002B5CDE90444FEF751FC4020CDE90205D4
:1028F00030463946CDE90455FEF748FC08200290E1
:102900004FF4041B30463946CDE903B4FEF73EFCD4
:102910001020CDE902050226404639460495059669
:10292000FEF734FC3020CDE9020B484639460494CA
:10293000FEF72CFC4FF48050CDE902055046394695
:10294000CDE90455FEF722FC50463946CDE9025543
:10295000CDE90456FEF71AFC092005210022FEF7F6
:10296000A3FD0920FEF78EFD0A2005210022FEF7B7
:102970009BFD0A20FEF786FD172005210022FEF7A9
:1029800093FD1720FEF77EFD07B0BDE8F08F10B570
:1029900040F6186043F20001C2F20000C4F20101E7
:1029A0004FF4827200234FF0010C4FF4007E10248C
:1029B00080E80E000A21C0E90333C0E905CEC461F6
:1029C000C0E90833C0E90A31FFF776F818B1BDE86D
:1029D0001040FDF73FBF10BD80B588B040F6706075
:1029E00044F200420021C2F20000C4F2010253236B
:1029F00040F2CF7CCDE90611CDE90411C0E90023F6
:102A0000C0E9021C01618161FFF7EDF908B1FDF732
:102A100021FF40F67060C2F20000FFF7A3FB08B18F
:102A2000FDF718FF602001900020CDE9020005901D
:102A300040F67060C2F2000001A90022FFF746FBD9
:102A400008B1FDF707FF40F67060C2F20000FFF723
:102A500015FB08B080BD80B540F6007041F2000162
:102A6000C2F20000C4F2010100234FF00C0C4FF43D
:102A7000E13280E80E00C0E90333C0E905C3C36159
:102A8000FFF702FD18B1BDE88040FDF7E3BE80BD51
:102A900080B540F6447044F60001C2F20000C4F272
:102AA000000148F2A06200234FF00C0CC0F20102BA
:102AB00080E80E00C0E90333C0E905C3C361FFF736
:102AC000E3FC18B1BDE88040FDF7C4BE80BD000046
:102AD000FEE70000FEE780ED060AC0EC030A70473F
:102AE000EFF30980BFF36F8F154B1A681EF0100FBC
:102AF00008BF20ED108A20E9F04F10602DE9090091
:102B00004FF0500080F31188BFF34F8FBFF36F8FEA
:102B100002F05AF84FF0000080F31188BDE8090078
:102B200019680868B0E8F04F1EF0100F08BFB0EC4D
:102B3000108A80F30988BFF36F8F704700BF00BF12
:102B4000A010002010B582B040F28813C2F200033A
:102B50001B6849F68174C1F25E64A3FB043C044621
:102B60004FEA5C504FF47A73584301906068B0F5B7
:102B7000827F0DD113460A462046802100F02AF8B4
:102B800078B1606D40F02000606503200AE000BF6E
:102B9000019830B1019801380190206880680006E2
:102BA000F6D4002002B010BD80B582B08DF80710B9
:102BB00000218DF806104FF47A7C0DF107010DF11C
:102BC00006020123CDF800C0FFF71EF89DF80600AD
:102BD00002B080BD2DE9F04381B01E4690460D46FF
:102BE0008146FEF7AAFB301A00EB0807FEF7A5FBAB
:102BF00040F28811C2F200010968C1F3CB31794378
:102C00000091D9F800108A682A40AA4216D10646D7
:102C100008F1010474B1FEF790FB801BB8420FD29B
:102C2000009800990028A1F101010091D9F8001045
:102C300008BF074688682840A842EBD0002028E05B
:102C4000D9E900014268B1F5827F22F0E0024260DA
:102C50000BD1D9F80810B1F5004F02D0B1F5806F53
:102C600003D1016821F040010160D9F82810B1F5C5
:102C7000005F07D1016821F400510160016841F44F
:102C800000510160012089F85100002089F85000AE
:102C9000032001B0BDE8F083000000000000000048
:102CA000074B19680868B0E8F04F80F30988BFF354
:102CB0006F8F4FF0000080F31188704700BF00BF96
:102CC000A010002086B000BFFDF767FC18B164209B
:102CD00001F08DFAF8E740F69045C2F2000505F1E3
:102CE0001400291D05F110020490CDE90221FDF721
:102CF00073FC9FEDC38A40F68C709FEDC20ADFED36
:102D0000C20A9FEDC21AC2F20000F0EE481AFFF7A5
:102D1000E2FE01F0BBF940F6084440F63840C2F24A
:102D2000000440F62C42C2F20000C2F2000221462A
:102D300002F0FEF940F6784094ED000A94ED011A95
:102D400094ED022AC2F2000040F66C41C2F200018A
:102D500080ED000A80ED011A80ED022A40F67440F1
:102D600040F2682A81ED000A40F67041C2F200008C
:102D7000C2F2000A9FEDA6AA40F6E03B40F2180816
:102D800040F6C8799FEDA3BA9FEDA3CA9FEDA3EAD1
:102D90009FEDA3FADFEDA38ADFEDA39A9FEDA39A3F
:102DA000DFEDA3AADFEDA3BADFEDA3CADFEDA3DA5F
:102DB000DFEDA3EADFEDA3FAC2F2000180ED002A05
:102DC0000AF10400C2F2000BC2F20008C2F20009CC
:102DD000B7EE00DA81ED001A019000BF01F01CFA95
:102DE00005900498DDE90221FDF7F6FB01995046B4
:102DF0004FF4C672FDF7C0FA002000BF0AEB0001D5
:102E0000D1F89821D1F82C33C1F89421D1F8C024FD
:102E1000C1F82833D1F85436C1F8BC24D1F8E827DA
:102E20000430B0F5C67FC1F85036C1F8E427E5D1CB
:102E30002A1D07CAD5E90536ED69CAF88C010020BC
:102E4000B0EE480ACAF82013CAF8B424CAF84836C3
:102E5000CAF8DC67CAF870590AEB000191ED001A54
:102E60000430B0F5C87F30EE010AF5D180EE0A0AD1
:102E70000020B0EE481A8AED640A00BF0AEB000198
:102E800091ED652A0430B0F5C87F31EE021AF5D114
:102E900081EE0A1A0020B0EE482A8AEDC91A00BF56
:102EA0000AEB000191EDCA3A0430B0F5C87F32EE6A
:102EB000032AF5D182EE0A2A0AF59760B0EE483A65
:102EC00080ED002A002000BF0AEB000101F2BC41A6
:102ED00091ED004A0430B0F5C87F33EE043AF3D1E7
:102EE00083EE0A3A0AF24C60B0EE484A80ED003AAE
:102EF000002000BF0AEB000101F5CA6191ED005A04
:102F00000430B0F5C87F34EE054AF3D184EE0A4AA6
:102F10000AF5FC60B0EE485A80ED004A002000BF80
:102F20000AEB000101F2E47191ED006A0430B0F5A2
:102F3000C87F35EE065AF3D185EE0A5A0AF67410A8
:102F40008BED000A8BED011A8BED022AB1EE436A7C
:102F500080ED005A002000BF08EB000191ED007ADF
:102F6000B4EE473AF1EE10FA0AD0B4EE467AF1EE3A
:102F700010FA03D00430C828EED107E0B1EE477A4A
:102F800040F6B440C2F2000080ED007AB1EE446A2F
:102F9000002000BF08EB000191ED007AB4EE474A33
:102FA000F1EE10FA0AD0B4EE467AF1EE10FA03D040
:102FB00004306428EED107E0B1EE477A40F6B8401D
:102FC000C2F2000080ED007AB1EE457A002000BF29
:102FD00008EB000191ED006AB4EE465AF1EE10FAEA
:102FE00034D0B4EE476AF1EE10FA2DD004305C28EC
:102FF000EED140F6BC40C2F2000090ED006A2BE03A
:103000000000000000A08C450000C844CDCC4C3E20
:103010000000C842BC74933C83C00A3F000034C225
:103020005D896EBF5AF8F63FD5A9183B6F12833AF7
:1030300000003443DA0F49400000B4430000484226
:10304000000034C300003442B1EE466A40F6BC4092
:10305000C2F2000080ED006A99ED017AD9ED061AFE
:1030600037EE0B7A77EE0C0AC7EE200AD9ED002A6C
:1030700071EE8B1A71EE8C3AC1EEA33A30EE620A11
:10308000D9ED0B4A47F2BC404CF28301C3F69340A2
:10309000C3F60A7141F27C07C9F80800C9E90710B4
:1030A00020EE800A30EE220A74EE8B2A72EE8C4AF1
:1030B000C2EEA44AC9ED040A7DEE600A27EE207A2A
:1030C000D9ED050A89ED017A31EE601A23EE811AF5
:1030D00031EE201AD9ED0A0A3DEE637A21EE877AA5
:1030E00032EE602A89ED067A24EE822A3DEE647A79
:1030F00032EE202A22EE877AC9E90C01C2F20007DB
:1031000040F6B440C9ED093AC9ED0E4A89ED0B7A93
:10311000C9F80C1089ED000A89ED051A89ED0A2A13
:1031200087ED000A87ED011A87ED022AC2F200003E
:1031300090ED000A40F6B84033EE400A87ED030AEE
:10314000C2F2000090ED001A35EE462A34EE411A24
:1031500087ED041A8BED040A8BED051A8BED062A18
:1031600087ED052A97E84F007D6940F60847C2F2CF
:10317000000787E8070040F62040C2F20000C0E9DF
:103180000036856000F082FF40F6D040C2F20000B9
:1031900040F690450078C2F2000595ED040A01283A
:1031A0001CD140F68C76C2F2000630EE0E0A304694
:1031B00000F044FE96ED0A0AB5EE400AF1EE10FA70
:1031C00007DA40F68C70C2F200000021B0EE480A27
:1031D0008162BDEEC00A10EE100A1FE0B4EE6F0A65
:1031E000F1EE10FA18DD40F68872C2F20002107893
:1031F0000130C1B2C92910700ED340F6D040C2F2DE
:1032000000000121017040F68C7044F20001C2F20E
:103210000000C4F21C51016241F2873040F6706137
:10322000C2F20001096840F67842486340F66C40FB
:10323000C2F20002C2F2000092ED001A90ED000A04
:1032400080ED001A40F6084020EE0F0A21EE281A01
:10325000C2F2000031EE000A90ED001A90ED014A32
:1032600090ED025A21EE291A40F6704031EE000A24
:10327000C2F2000092ED012A82ED000A90ED000AF0
:1032800022EE281A20EE0F0A80ED002A31EE000A05
:1032900024EE291A40F6744031EE000AC2F2000012
:1032A00092ED023A82ED010A90ED000A23EE281A0F
:1032B00020EE0F0A31EE000A25EE291A40F63846B4
:1032C00031EE000AC2F2000640F6204140F62C43DF
:1032D00040F6144740F6484480ED003A82ED020A79
:1032E0003046B0EE490AC2F20001C2F20003C2F257
:1032F0000007C2F2000402F069F83A1D07F1080362
:103300003046394602F096FD97ED000A94ED011A19
:1033100020EE2A0A80EE2B0A84ED071A30EE411ABD
:10332000B4EE6A1AF1EE10FA84ED010A02DD208C87
:10333000013806E0208CB4EE6E1AF1EE10FA01DAD4
:103340000130208497ED021A97ED012A21EE2A1A06
:1033500081EE2B1A22EE2A2A82EE2B2A00B203EEED
:10336000100AB8EEC33A23EE2C3A40F6204033EE72
:10337000000AC2F2000084ED020A90ED020A012167
:1033800020EE2D0A84ED001A90ED011A84ED050A55
:1033900021EE2D0A90ED001A84ED040A21EE2D0A8B
:1033A00005A884ED032A84ED060A00F028FF15E540
:1033B00080B54FF0500080F31188BFF36F8FBFF3DB
:1033C0004F8F01F04FFD30B14EF60450CEF20000A9
:1033D0004FF080510160002080F3118880BD000013
:1033E000B0B592B0002401A81421CDE90A44CDE97A
:1033F0000844FDF706F843F640000094C4F20200CA
:103400000168022541F080510160006800F08050A1
:103410000090009847F200000094C4F20000016898
:1034200041F480410160006800F480400090009801
:10343000012006904FF4803007904FF480000D90EB
:1034400006200E90A820CDE90F050420119006A8B3
:103450000C95FEF785F920B1EFF3108072B600BF2E
:10346000FEE70F20CDE901054FF4A05004904FF482
:103470008050059001A805210394FEF751F820B172
:10348000EFF3108072B600BFFEE712B0B0BD4EF68B
:103490008850CEF20000016841F47001016070476D
:1034A00040F6B860C2F20000FEF733BD10B540F63A
:1034B000FF3E0368C4F2000E40F2004C7045C4F2B7
:1034C000010C0DDCB0F1804F17D040F20042C4F285
:1034D0000002904211D040F60002C4F200020AE05D
:1034E00040F60042C4F20002904206D0604504D08B
:1034F0000022C4F20102904203D14A6823F0700313
:10350000134341F6FF72C4F2000290420DDC704595
:103510001FDCB0F1804F3FD040F20042C4F2000205
:10352000904239D040F6000221E043F6FF72C4F227
:10353000010290421EDC42F20002C4F200029042FC
:103540002AD00022C4F20102904225D0604523D047
:1035500026E040F60042C4F2000290421CD041F640
:103560000002C4F20002904216D041F60042C4F2BA
:1035700000020FE044F20002C4F2010290420BD0BC
:1035800044F60002C4F20102904205D044F2004227
:10359000C4F20102904203D1CA6823F4407313437A
:1035A00023F080024B69D1F800E08C681A43026076
:1035B000C46240F48062C0F828E0624504BF096933
:1035C00001630121416110BDB0B5026A40F20045BE
:1035D00022F001020262026AD0F804E0D0F818C0BA
:1035E0008C6822F0020240F48063C4F20105AB4211
:1035F00042EA040205D1CC6822F00C0224F0040453
:1036000022430C68AB4207D1D1E905532EF4407E2A
:1036100045EA0E0545EA030E2CF073032343C0F878
:1036200004E08361496841630262B0BD70B5026A1B
:1036300040F2004422F010020262026AD0F804E074
:10364000D0F818C08B6822F0200540F48062C4F2E4
:103650000104A24245EA031307D1CD686FF040068A
:1036600023F0C00306EA05152B430D68A24206D1DC
:10367000D1E905242EF44066224346EA820E2CF45A
:10368000E64242EA0522C0F804E0826149688163AB
:10369000036270BD70B5026A40F2004422F4807289
:1036A0000262026AD0F804E0D0F81CC08B6822F4F1
:1036B000007540F48062C4F20104A24245EA03238B
:1036C00007D1CD6840F2FF462D0223F44063B54395
:1036D0002B430D68A24206D1D1E905242EF44056B1
:1036E000224346EA021E2CF073022A43C0F804E08B
:1036F000C2614968C163036270BD70B5026A40F27D
:10370000004622F480520262026A4368D0F81CE04C
:103710000C68D1F808C040F48065C4F20106B542D7
:1037200004D14D6923F4804343EA85132EF4E64621
:1037300046EA04264360C66122F40052496842EA20
:103740000C320164026270BD806B0021C185C184AE
:10375000FEF73FBD016851E8031F026821F4907134
:1037600042E80313002BF5D1016851E8051F0268F8
:1037700021F0010142E80513002BF5D1016B01296D
:103780000AD100BF016851E8031F026821F010014F
:1037900042E80313002BF5D1202180F83E100021D0
:1037A0000163704781B090F83E10222920D18368D0
:1037B0000246B3F5805F08D152F8281F52F8183C32
:1037C000002B46D003685B6809E052F8281F13B944
:1037D0000369002BF6D003685B6803F07F030B706E
:1037E000116801311160C18D01390A04C18501D010
:1037F00001B070470168CA6822F02002CA60CA6836
:1038000022F48072CA604A6922F001024A612021D2
:1038100080F83E10016B012923D10021016300BF14
:10382000016851E8031F026821F0100142E8031308
:10383000002BF5D101680A68D20606D50022009255
:103840000A680092496800910099818D01B0FEF7E5
:10385000BFBC026852686FF35F2221F8022B8162BD
:10386000C1E701B0FEF711BF10B504460068D4E906
:1038700002C22369016921F4405111430161626967
:1038800043EA0C01E3691143C268194349F20C632E
:103890009A431143C1604169A26921F4407141F228
:1038A0000043114340F48062C4F201039A42416133
:1038B00002D1FDF70EFF01E0FDF7F8FEE169636854
:1038C0001922B1F5004FA0FB020120D15A00DB0FF5
:1038D000FCF7DAFC48F21F51C5F2EB11A0FB012303
:1038E0005A094FF69C73C0F6FF7303F1805302FB35
:1038F0000300322303EBC000A0FB01014FF4F8707A
:1039000000EA111000EB0210C1F342111CE09A0012
:103910009B0FFCF7B9FC48F21F51C5F2EB11A0FB5D
:1039200001235A094FF69C73C0F6FF7302FB030094
:10393000322303EB0010A0FB0101F02000EA51103C
:1039400000EB0210C1F3431108442168886010BDE8
:1039500040F60070C2F20000FEF73CBC40F6447036
:10396000C2F20000FEF736BCFEE7F0B581B04FF6BC
:103970008311C3F6226102F013FC4FF07A5102F07A
:103980006BFB044602F0C0FB0546204600210027E1
:1039900002F08EFB002818BF013D284602F0C2FB52
:1039A0000146204602F058FC4FF0884102F0F8FB37
:1039B000054602F0B0FB044628464FF0444102F0B1
:1039C0004BFB0646B7EB542F0CBF2E460024204677
:1039D00002F0AFFB0146304602F03EFC05464FF0D8
:1039E0007E50294602F038FC46F29827C0F60007C0
:1039F00057F8241002F0D4FB064607EB8400416818
:103A0000284602F0CDFB0146304602F025FB01B00E
:103A1000F0BDF0B581B04FF68311C3F6226102F01C
:103A2000BFFB044602F070FB05462046002100273C
:103A300002F03EFB002818BF013D284602F072FB51
:103A40000146204602F008FC4FF0884102F0A8FB36
:103A5000054602F060FB044628464FF0444102F060
:103A6000FBFA0646B7EB542F0CBF2E460024204627
:103A700002F05FFB0146304602F0EEFB05464FF0D8
:103A80007E50294602F0E8FB46F29827C0F6000770
:103A900057F8241002F084FB064607EB84004168C7
:103AA000284602F07DFB0146304602F0D5FA01B00F
:103AB000F0BD00002DE9F04381B040F20008C4F2EF
:103AC0000208404610210022FDF732FC40F618663D
:103AD000C2F2000630468021FFF766F830465521D5
:103AE000FFF762F830465521FFF75EF84046102197
:103AF00001220125FDF71CFC962000F07FF94046CD
:103B000010210022FDF714FC30468021FFF74CF80D
:103B100030465521FFF748F830465521FFF744F865
:103B2000404610210122FDF703FC962000F066F9C3
:103B3000404610210022FDF7FBFB30467E21FFF7B7
:103B400033F83046B621FFF72FF840461021012206
:103B5000FDF7EEFB502000F045F940461021002211
:103B6000FDF7E6FB30468021FFF71EF83046552171
:103B7000FFF71AF830465521FFF716F84046102196
:103B80000122FDF7D5FB962000F038F940461021C0
:103B90000022FDF7CDFB30468021FFF705F83046C7
:103BA0005521FFF701F830465521FEF7FDFF064687
:103BB000404610210122FDF7BBFB962000F01EF9C4
:103BC0001E2E49D146F6A62940F618650024C0F6F7
:103BD0000009C2F2000500BF404610210022FDF797
:103BE000A7FB04EB440019F8007009EB00014E78C4
:103BF00028463946FEF7D8FF28463146FEF7D4FF5F
:103C0000404610210122FDF793FB962000F0F6F8C4
:103C1000404610210022FDF78BFB47F0800128462B
:103C2000FEF7C2FF28465521FEF7BEFF2846552164
:103C3000FEF7BAFF0746404610210122FDF778FB48
:103C4000962000F0DBF8B74203D1052C04F1010403
:103C5000C2D1BD1B18BF0125284601B0BDE8F083C5
:103C60002DE9F04381B040F20048C4F2020840461A
:103C7000012100220125FDF75BFB40F61866C2F228
:103C8000000630468021FEF78FFF30465521FEF7B3
:103C90008BFF404601210122FDF74AFB962000F0F0
:103CA000ADF8404601210022FDF742FB304680215D
:103CB000FEF77AFF30465521FEF776FF4046012198
:103CC0000122FDF735FB962000F098F840460121CF
:103CD0000022FDF72DFB30461421FEF765FF30462C
:103CE000B621FEF761FF404601210122FDF720FBCE
:103CF000502000F077F8404601210022FDF718FB24
:103D000030468021FEF750FF30465521FEF74CFF2C
:103D1000404601210122FDF70BFB962000F06EF8D2
:103D2000404601210022FDF703FB30468021FEF7CB
:103D30003BFF30465521FEF737FF0646404601213E
:103D40000122FDF7F5FA962000F058F80F2E45D124
:103D500046F6B82940F618650024C0F60009C2F2FC
:103D6000000500BF404601210022FDF7E1FA04EB07
:103D7000440019F8007009EB00014E7828463946D6
:103D8000FEF712FF28463146FEF70EFF404601219E
:103D90000122FDF7CDFA962000F030F840460121CF
:103DA0000022FDF7C5FA47F080012846FEF7FCFE29
:103DB00028465521FEF7F8FE07464046012101221C
:103DC000FDF7B6FA962000F019F8B74203D1052C9A
:103DD00004F10104C6D1BD1B18BF0125284601B05E
:103DE000BDE8F08310B540B1044600BF4FF47A70CF
:103DF000013C00F003F8002CF8D110BD2DE9F04192
:103E000040F224080446C4F20008FDF796FAD8F8F8
:103E100000104FF47A7600FB061740F6E045C2F238
:103E200000052F60FDF789FAD8F8001000FB061096
:103E3000C11BA1422860F5D3BDE8F081D8B390ED55
:103E4000034A90ED012A90ED001A90ED045A80ED9E
:103E5000044A30EE446A34EE044A90ED023A80EDB2
:103E6000030A22EE002A30EE440A26EE011A35EE4D
:103E7000000A20EE030A31EE023A80ED071A90EDB7
:103E8000061A33EE000AB4EE410AF1EE10FA80EDA4
:103E9000055A80ED082A80ED090A07DCB1EE411AC7
:103EA000B4EE410AF1EE10FAA8BF7047B0EE410A35
:103EB00080ED091A70479FED010A7047000000006D
:103EC000B0B500681368984240F0D5808879907347
:103ED000088800BA000C9081488800BA000C508114
:103EE000888800BA000C1081107D032888BFB0BDFF
:103EF0000FF20401DFE800F00288345E547D40F6E2
:103F0000C04CC2F2000CB2F90C305CF824104EF236
:103F10000000591ACFF6FF70B8BF4FF4005010EBF5
:103F2000010E4CF82430F44648BFCEF1000C0029B5
:103F30000B4600D54B4240F6C840C2F2000050F894
:103F400024509C4538BF7146294400EE101A9FED5D
:103F50004D1AB8EEC00A40F8241020EE010A84E0A1
:103F6000507D40F6C045C2F20005B2F90C3055F85C
:103F700020104EF20004591ACFF6FF74B8BF4FF468
:103F8000005414EB010EF44645F8203048BFCEF142
:103F9000000C00290B4600D54B4240F6C844C2F243
:103FA000000454F820509C4538BF714629449FEDC9
:103FB000341A52E0507D40F6C045C2F20005B2F915
:103FC0000C3055F820104EF20004591ACFF6FF7449
:103FD000B8BF4FF4005414EB010EF44645F82030FE
:103FE00048BFCEF1000C00290B4600D54B4240F6ED
:103FF000C844C2F2000454F820509C4538BF7146B2
:1040000029449FED1D1A28E0507D40F6C045C2F2BC
:104010000005B2F90C3055F820104EF20004591A80
:10402000CFF6FF74B8BF4FF4005414EB010EF44602
:1040300045F8203048BFCEF1000C00290B4600D5D2
:104040004B4240F6C844C2F2000454F820509C454C
:1040500038BF714629449FED091A00EE101AB8EED8
:10406000C00A80EE010A44F820109FED071A20EEE6
:10407000010A82ED010AB0BD000018482CA01948C1
:1040800000009048000000390000B4432DE9F041E1
:1040900040F69040C2F2000090ED010A90ED021A45
:1040A00090ED032A90ED053A90ED064A90ED075AFF
:1040B00040F6B870C2F2000090ED016A90ED027A0D
:1040C000D0ED030A40F2D41040F2B01140F28C124D
:1040D000C2F20000C2F20001C2F2000240F6D44C6B
:1040E00040F6204E40F6844840F6084541F240062E
:1040F00040F62C470830043104320023C2F2000C91
:10410000C2F2000EC2F20008C2F20005C2F20006BE
:10411000C2F20007D1ED001A51ED012AD1ED013AAA
:1041200064EE211A63EE222A0CEB030472EEA11A4C
:1041300065EE232AD4ED003A72EEA11A71EEA31AAD
:104140000EEB0304C4ED001AD2ED001A52ED012A61
:10415000D2ED013A61EE211A60EE222A08EB030447
:1041600072EEA11A62EE232AD4ED003A72EEA11A81
:1041700071EEA31AEC18C4ED001A50ED011A50EDBF
:10418000022AD0ED003A67EE211A66EE222AF418D0
:1041900072EEA11A60EEA32AD4ED003A72EEA11AD3
:1041A000FC18043371EEA31A0C300C310C2B02F105
:1041B0000C02C4ED001AADD1BDE8F081FDF7D0F8D6
:1041C000FFF70EF9FEF700FBFEF7A7FAFEF761FA1C
:1041D000FEF781FAFEF7DBFBFEF7FEFBFEF73BFC8A
:1041E000FEF756FCFEF7C8FA00F011F8FEE780B5BE
:1041F000002808BF012000F025FC002080BD80B50C
:10420000002908BF012100F045FC002080BD80B5D9
:1042100000F092FC002080BDEFF3058008B100F0B3
:1042200018BE00F010BEB0B584B043698E468BB1A5
:1042300084697CB10589D0E9001C026928B2843DFB
:1042400018BFC51CCDE9005360467346029400F0C8
:10425000BFFD13E00589D0E90013028A28B2843D2E
:1042600018BFC51C03AC184673460095019400F0B6
:1042700082FD0399012818BF0021084604B0B0BD93
:10428000F0B581B00C4645F2440141F2A006C2F2FD
:104290000001C2F200060F683168002281F8522046
:1042A00031680546081D00F09FFA60B9306844F691
:1042B0005852C06AC2F200020121136801FA00F0EC
:1042C00023EA00001060681C0BD154B13068011D56
:1042D00045F21C00C2F2000001B0BDE8F04000F061
:1042E000CEBA30687C1944600BD341F2AC00C2F204
:1042F000000000683168043101B0BDE8F04000F012
:10430000A1BA41F2A400C2F2000000683168043191
:1043100000F098FA44F6E870C2F2000001688C429E
:1043200038BF046001B0F0BD2DE9F047044600F04D
:10433000BFFA44F64850C2F20000016841F2A007FB
:1043400001310160C2F20007396845F2100A41F2FA
:10435000B006C2F2000AC2F2000651B1DAF800005B
:1043600000283DD13868E16AC06A884298BF3C6045
:1043700036E03C600068012832D10025701900F059
:1043800052FA14358C2DF9D144F66058C2F2000867
:10439000404600F048FA44F67459C2F20009484613
:1043A00000F041FA44F6FC70C2F2000000F03BFA63
:1043B00045F23000C2F2000000F035FA45F21C0070
:1043C000C2F2000000F02FFA41F2A400C2F2000095
:1043D000C0F8008041F2AC00C2F20000C0F80090CA
:1043E00044F65450C2F20000016844F658520131BC
:1043F0000160E06AC2F200020121136881401943A2
:1044000000EB8000116006EB8000211D00F037FA00
:1044100000F070FADAF8000078B13868E16AC06A32
:1044200088420AD24EF60450CEF200004FF080517E
:104430000160BFF34F8FBFF36F8FBDE8F0870000BF
:1044400010B5044690F85100022808BF10BD01289D
:1044500003D038B9206B00F065FA2046BDE8104063
:1044600000F060BA4FF0500080F31188BFF36F8FF7
:10447000BFF34F8FFEE7000044F64C5541F2B00AFF
:104480004EF6045845F2300744F64856C2F200058D
:10449000C2F2000ACEF200084FF08059C2F20007C3
:1044A000C2F20006286890B100F002FAF868C46809
:1044B000201D00F099F93068013830602868013813
:1044C000286000F017FA2046FFF7BAFFEAE7DAF8AB
:1044D00000000228E6D3C8F80090BFF34F8FBFF367
:1044E0006F8FDFE72DE9F0470A9C8246206B164666
:1044F0000F46DDE908599100A5229846FBF779FFA0
:10450000206B00EB8600A0F1040020F007067FB1CD
:1045100004F13400002100BF7A5C42547A5C1AB185
:104520000F2901F10101F7D1002084F8430002E0D6
:10453000002084F834000027201D062D28BF062502
:10454000E562C4E9115700F079F904F1180000F0B0
:1045500075F985F00700A061304651464246246156
:104560006462E76484F8507084F8527000F028F9AF
:10457000B9F1000F206018BFC9F80040BDE8F0870E
:1045800080B545F21402C2F2000200BF1146126863
:104590008242FBD34B68D0F804C001EB030E864582
:1045A00003D19C440846C1F804C000EB0C039342BD
:1045B0000AD141F2A803C2F200031B689A4203D059
:1045C000D2E90023634443608142026018BF08605F
:1045D00080BD000008480068006880F308884FF03C
:1045E000000080F3148862B661B6BFF34F8FBFF34B
:1045F0006F8F00DF00BF000008ED00E081B00020F9
:10460000009040F20020C2F2000000684FF050011C
:1046100081F31188BFF36F8FBFF34F8F013001D04B
:10462000FEE700BF00980028FCD001B070470000F2
:10463000F0B581B0044600F0BFFA41F2A800C2F222
:104640000000016849B144F65C51C2F200010978EA
:10465000002918BF4FF0004136E041F23C11C2F290
:104660000001CB1D23F0070311F00702A1EB0307A4
:1046700018BF194645F21403C2F200030026C3E92D
:1046800000164FF47053002A18BF07F57053CA186C
:1046900022F00702A2F10803036042E902665A1AF7
:1046A000C1E9003244F6E471C2F200010A6044F646
:1046B0008851C2F200010A6044F65C51C2F2000166
:1046C00001220A704FF00041002C4FF0000567D026
:1046D000214065D124F007011031620708BF04F1C1
:1046E000080100294FF000055AD044F68856C2F25E
:1046F00000063268914253D845F21402C2F2000219
:1047000017687B688B420ED23C6844B163683A46B6
:1047100027468B4207D23C68002CF7D103E045F2D4
:104720001402C2F200020068874212D0156838688D
:104730005B1A112B106012D3781842070BD04FF080
:10474000500080F31188BFF36F8FBFF34F8F00BF0E
:10475000FEE7002524E043607960FFF711FF44F68F
:10476000E47178683268C2F200010B68121A9A424A
:10477000326038BF0A6044F65C51C2F20001097829
:10478000083500294FF0000118BF40F000403960A3
:1047900044F6F071C2F200010A687860501C0860AB
:1047A00000F020FC680708D04FF0500080F311881B
:1047B000BFF36F8FBFF34F8FFEE7284601B0F0BD08
:1047C000034644F2FD50C0F600004FF0807C21F01B
:1047D000010103E903106FF0020043F8240CA3F178
:1047E000440043F8202C7047D0E9013201699A60F7
:1047F000D1F804C082688445536008BF4A60002233
:1048000002610868013808600868704744F69073D0
:10481000C2F20003036044F68C50C2F2000008604C
:104820008020106070474FF0FF31024642F8081FA9
:1048300000214260C0E9032201607047002101614C
:104840007047000080B5D1F800C01CF1010207D00C
:1048500000F108029646526813686345FAD903E0EE
:10486000D0F810E0DEF804204A609160C1F808E05A
:10487000CEF80410086101680131016080BDD0F8F4
:1048800000C0436808619A684B608A609A689960C2
:1048900051600CF10101016070470000DFF80C006D
:1048A000016841F4700101607047000088ED00E08C
:1048B0004FF0500080F31188BFF36F8FBFF34F8F1D
:1048C00040F20020C2F2000001684A1C026001B1FF
:1048D00070474EF60450CEF2000000680006F7D094
:1048E0004FF0500080F31188BFF36F8FBFF34F8FED
:1048F000FEE7000040F20020C2F20000016839B17A
:104900000139016018BF7047002080F3118870479B
:104910004FF0500080F31188BFF36F8FBFF34F8FBC
:10492000FEE70000B0B5D0B1044644F65C50C2F2D8
:104930000000007854F8041C002818BF4FF0004015
:1049400008420DD0A4F108052A6892B14FF050003A
:1049500080F31188BFF36F8FBFF34F8FFEE7B0BDB9
:104960004FF0500080F31188BFF36F8FBFF34F8F6C
:10497000FEE721EA000044F8040C00F01DF944F6BB
:104980008851C2F2000154F8040C0A68104408600F
:104990002846FFF7F5FD44F6F470C2F20000016806
:1049A00001310160BDE8B04000F01CBB4EF21000C8
:1049B000CEF2000000210160816040F28811C2F255
:1049C0000001096844F6D352C1F26202A1FB02124F
:1049D0004FF0FF3101EB92114160072101607047F8
:1049E000EFF30580102814D34EF2F031CEF200011F
:1049F000405C44F63C51C2F200010978884208D27A
:104A00004FF0500080F31188BFF36F8FBFF34F8FCB
:104A1000FEE74EF60C50CEF2000044F6405100681E
:104A2000C2F20001096800F4E060884298BF704754
:104A30004FF0500080F31188BFF36F8FBFF34F8F9B
:104A4000FEE7000080B5C0B144F65051C2F200014B
:104A50000A6842B14FF0500080F31188BFF36F8FA6
:104A6000BFF34F8FFEE70A6801320A600021FFF7AB
:104A700007FC00F0B7FA00B180BD4EF60450CEF24C
:104A800000004FF080510160BFF34F8FBFF36F8F75
:104A900080BD000080B580B1C9B144F65052C2F269
:104AA00000021368EBB14FF0500080F31188BFF3A0
:104AB0006F8FBFF34F8F00BFFEE74FF0500080F3C2
:104AC0001188BFF36F8FBFF34F8F00BFFEE74FF02A
:104AD000500080F31188BFF36F8FBFF34F8F00BF7B
:104AE000FEE713680133136045F24402C2F200028C
:104AF000126803689A42194402D2994202D309E02B
:104B0000994201D3914205D90160881A0021FFF72B
:104B1000B7FB00E0016000F065FA00B180BD4EF621
:104B20000450CEF200004FF080510160BFF34F8F70
:104B3000BFF36F8F80BD000010B586B0002405A8BC
:104B400004A903AACDE90444FFF760FEDDE90320D0
:104B500005990023CDE9010144F27940C0F6000037
:104B600013A1009400F034F944F68C71C2F20001F4
:104B70000860D8B14FF0500080F31188BFF36F8FF9
:104B8000BFF34F8F44F6E870C2F200004FF0FF31E0
:104B9000016045F21000C2F200000121016045F2FF
:104BA0004400C2F20000046000F050F806B010BDEE
:104BB00049444C450000000044F65050C2F2000049
:104BC000016801310160704744F65050C2F20000A4
:104BD000006830B145F24800C2F2000001210160D6
:104BE000704745F24800C2F200000021016044F61F
:104BF0005850C2F200000068B0FA80F0C0B2C0F1B4
:104C00001F0041F2B00100EB8000C2F2000151F838
:104C100020208AB101EB800151F8040F40680A1D81
:104C20009042086001D140680860C06841F2A0016C
:104C3000C2F20001086070474FF0500080F3118805
:104C4000BFF36F8FBFF34F8FFEE70000B0B584B0A6
:104C50004EF60050CEF200004CF27021C4F20F115B
:104C600002684B1C9A4208D14FF0500080F3118823
:104C7000BFF36F8FBFF34F8FFEE702688A4208D100
:104C80004FF0500080F31188BFF36F8FBFF34F8F49
:104C9000FEE74FF2007CCFF6FF7C10F80C2044F6C4
:104CA0003C530292FF2200F80C2010F80C20C2F2B4
:104CB00000038DF807209DF8072002F050021A70BB
:104CC00044F64052C2F20002072313609DF90730F8
:104CD000B3F1FF3F46DC062313609DF80710013B4C
:104CE00049008DF807109DF907100029F4D4022B14
:104CF00038D14FF440711160029900F80C10016A2C
:104D000041F470010162016A41F070410162FFF7F4
:104D10004DFE40F20024C2F2000400252560FFF79A
:104D2000BDFD4EF63470CEF20000016841F0404106
:104D30000160FFF74FFCFFF747FF039520684FF036
:104D4000500181F31188BFF36F8FBFF34F8F013094
:104D500002D000BFFEE700BF03980028FCD000206F
:104D600004B0B0BD4FF0500080F31188BFF36F8FD7
:104D7000BFF34F8FFEE72DE9F04383B00746900065
:104D8000984615468946FFF753FCE0B10646542085
:104D9000FFF74EFCA0B10446DDE90A1000222663AD
:104DA00084F85120CDE90010384649462A4643464A
:104DB0000294FFF797FB2046FFF7B6FA012004E0C4
:104DC0003046FFF7AFFD4FF0FF3003B0BDE8F08392
:104DD00070B586B00B9CCCB10C9E06B354250495DF
:104DE000049D542D25D1049DDDF828C0022586F8A8
:104DF000515005AD3463CDE900C50296FFF772FB53
:104E00003046FFF791FA059806B070BD4FF050009C
:104E100080F31188BFF36F8FBFF34F8FFEE74FF022
:104E2000500080F31188BFF36F8FBFF34F8F00BF27
:104E3000FEE74FF0500080F31188BFF36F8FBFF390
:104E40004F8F00BFFEE745F24400C2F20000006849
:104E5000704780B5FFF7C4FD45F24400C2F2000080
:104E6000006880BD2DE9F04F81B044F65050C2F289
:104E70000000006840B144F6F870C2F2000001681A
:104E8000002401310160A8E045F24400C2F20000B4
:104E900001684E1C06602ED341F2A400C2F200004D
:104EA0000168096849B14FF0500080F31188BFF3E1
:104EB0006F8FBFF34F8F00BFFEE741F2AC02C2F22B
:104EC0000002016813680360116044F6EC71C2F2DD
:104ED00000010A6801320A600168096821B10068AE
:104EE000C068C068406801E04FF0FF3044F6E871E8
:104EF000C2F20001086044F6E871C2F200010868DD
:104F000041F2A00A8642C2F2000A01D200244EE019
:104F100041F2A40BC2F2000BDBF800000024006891
:104F2000002841D044F658590127C2F2000900BFB9
:104F3000DBF80000C068D0F80C80454655F8040F37
:104F400086422CD32846FFF74FFCD8F8280018B12A
:104F500008F11800FFF748FCD8F82C00D9F8001029
:104F600007FA00F21143C9F8001041F2B00100EB5A
:104F70008000C2F2000101EB80002946FFF77FFCB0
:104F8000D8F82C00DAF80010C96ADBF80020884253
:104F9000106828BF3C460028CAD14FF0FF3044F6C5
:104FA000E871C2F2000101E04FF0FF300860DAF86A
:104FB000000041F2B001C06AC2F2000100EB8000C3
:104FC00051F82000012845F24800C2F2000088BFD5
:104FD00001240068002818BF0124204601B0BDE864
:104FE000F08F00002DE9F04F81B044F65054C2F22A
:104FF0000004206868B1FFF75BFC2068013820607E
:10500000206880B10024FFF775FC204601B0BDE8A0
:10501000F08F4FF0500080F31188BFF36F8FBFF314
:105020004F8F00BFFEE744F64850C2F20000006810
:105030000028E7D044F6FC76C2F20006306845F25C
:1050400048080028C2F2000843D044F6585541F2FF
:10505000B00941F2A00A4FF0010BC2F20005C2F202
:105060000009C2F2000A00BFF068C76807F1180023
:10507000FFF7BAFB3C1D2046FFF7B6FBF86A29682C
:105080000BFA00F2114300EB8000296009EB80006D
:105090002146FFF7F4FBF86ADAF80010C96A884283
:1050A00028BFC8F800B030680028DDD141F2A40064
:1050B000C2F200000168096821B10068C068C068D8
:1050C000406801E04FF0FF3044F6E871C2F20001A1
:1050D000086044F6F874C2F2000425684DB1012658
:1050E000FFF7C0FE08B1C8F80060013DF8D100200C
:1050F0002060D8F8000000283FF484AF4EF604503A
:10510000CEF200004FF080510160BFF34F8F0124B9
:10511000BFF36F8F77E7F0EE400AF5EEC00AF1EECD
:1051200010FA02DDB0EE600A7047B1EE600AFBE7EC
:1051300070B52DED0C8B84B006460C4615469FEDE0
:10514000990AF0EE408A9FED970AB0EE409A9FEDE3
:10515000950AF0EE40BA9FED930AF0EE409A9FED6B
:10516000910AB0EE40AA0EB104B11DB904B0BDEC75
:105170000C8B70BD8C48FBF7EEF98C48FBF7EFF910
:105180008A48D0ED000A9FED8A1A60EE810AB0EEDF
:10519000600AFBF700FAF0EE408A28EEA80AF0EE6B
:1051A000408A8248D0ED000AB0EE001A60EE810A13
:1051B0009FED7F1A60EE810AB0EE600AFBF7EBF913
:1051C000B0EE409A29EE090AB0EE409ADFED790A76
:1051D000B7EE000A00EEA80ADFED770A00EEC90A72
:1051E000DFED760A20EE200A754880ED000A6E4851
:1051F00090ED000ADFED730A80EE201AB7EE000A88
:1052000031EE000A20EE000A6D48D0ED000A80EE73
:10521000801A6D4880ED001A94ED000AB5EEC00AC0
:10522000F1EE10FA0DD194ED010AB5EEC00AF1EEDF
:1052300010FA06D194ED020AB5EEC00AF1EE10FAAA
:1052400046D09FED580AB0EE408A002001900290AF
:105250000390D4ED000A60EEA00A94ED011AD4ED9B
:10526000011A41EE210A94ED021AD4ED021A41EE20
:10527000210AB0EE600AFBF778F9B0EE408A94EDAF
:10528000000A20EE080A8DED010A94ED010A20EED5
:10529000080A8DED020A94ED020A20EE080A8DED4F
:1052A000030ADDED010AF1EE600AB0EE600AFBF7D9
:1052B0004CF9F0EE409A9DED031AF0EE410A9DED97
:1052C000021AB0EE410AFBF742F9B0EE40AA07E03D
:1052D0009FED340AF0EE409A9FED320AB0EE40AAFC
:1052E00095ED000AB5EEC00AF1EE10FA0DD195ED7C
:1052F000010AB5EEC00AF1EE10FA06D195ED020AE8
:10530000B5EEC00AF1EE10FA3CD0B0EE690AFBF738
:1053100042F9B0EE408AB0EE690AFBF71AF9B0EE36
:1053200040DAB0EE4A0AFBF736F9F0EE40AAB0EEEA
:105330004A0AFBF70EF9B0EE40BA28EE2A0AD5ED7C
:10534000010A20EE200AD5ED000A0DEE200A68EED3
:105350000B0A95ED021A00EE810AB0EE40CA95EDF7
:10536000010A20EE0B0AD5ED020A0AEEE00AF0EE81
:1053700040CAF0EE6C0AB0EE4C0AFBF7E8F8F0EE2B
:1053800040BA03E09FED070AF0EE40BAB0EE4A1AC9
:10539000F0EE690AB0EE6B0A304600F095FC00BFF3
:1053A000E4E60000000000000000002004000020EF
:1053B00035FA8E3CC1BFAD3B9DF8C5362F7C1C41F4
:1053C00008000020506CC24A0C0000202DE9F0417A
:1053D0002DED028B9AB00546B0EE408A0E46174678
:1053E00098460020179018901990149015901690D8
:1053F0004DB146B13FB1B8F1000F04D0B5EEC08A4F
:10540000F1EE10FA05D100201AB0BDEC028BBDE818
:10541000F08196ED000A8DED170A96ED010A8DEDEB
:10542000180A96ED020A8DED190A97ED000A8DED26
:10543000140A97ED010A8DED150A97ED020A8DED1C
:10544000160A17AA14A9284600F090FA402104A8C9
:10545000FAF7D7FF002000900190029003900024FB
:1054600017A904A800F0BBFD00BF30E004A800EBC2
:10547000041090ED000AD5ED000A20EE200A04A8E1
:1054800000EB0410D0ED010A95ED011A00EE810A3F
:1054900004A800EB0410D0ED020A95ED021A00EE0C
:1054A000810A04A800EB0410D0ED030A95ED031A5D
:1054B00000EE810A20EE080AF0EE000A80EE201AC3
:1054C000684600EB840080ED001A601CC4B2042C16
:1054D000CCDB002410E005EB840090ED000A684668
:1054E00000EB8400D0ED000A30EE200A05EB8400CA
:1054F00080ED000A601CC4B2042CECDB284600F0EE
:105500000DFD012080E74100080218BF04200A0EAB
:1055100018BF40F001004FF07F4232EA010108BF9E
:1055200040F00200012808BF0520704710B54FF079
:105530000E402DED028BB0EE408A18EE104A00EBC3
:105540004400B0F1506F4AD84FF0FC40B0EB440F2C
:1055500022D2B0EEC80AF7EE000A30EEC00AF6EE2C
:10556000000A60EE208A18EE900A00F019FD01EEA4
:10557000100A14F0004F1DBFDFED2D0A9FED2D0A1C
:10558000B1EE411ADFED2C0A08BF9FED2C0AF8EEB0
:10559000001A21EE218A05E0DFED290A68EE088A6B
:1055A000B0EE600A9FED271ADFED271A30EE080AE9
:1055B00048EE811A9FED251A08EEA11ADFED241A94
:1055C00048EE811A9FED231A08EEA11A68EE281AF8
:1055D000BDEC028B01EE810A30EE200A10BD4FF0C7
:1055E000E440B0EB440F0CD918EE100AFFF78BFF24
:1055F000042808BF00F0B2F9B0EE480ABDEC028BF7
:1056000010BD4FF07F40B0EB440F07D2B0EE480A18
:10561000BDEC028BBDE8104000F091B90120FAF713
:105620001FFFBDEC028BBDE8104000F08FB90000F9
:105630000000C9BF22AAFDB90000C93F22AAFD3956
:105640000000000024FE1C3DC78AD83C1E67383D80
:105650001B93993DAFAA2A3E70B54FF068422DEDDD
:10566000048BF0EE408A18EE900AB0EE608A18EED5
:10567000101A02EB4003B3F1654F3CBF02EB41024D
:10568000B2F1654F7DD200BFC0F3C753C1F3C7521B
:105690009A1A1B2A09DD10F0004F14BF9FED830AF0
:1056A0009FED830ABDEC048B70BD12F11A0F36DA40
:1056B00011F0004F09D010F0004F0CBF9FED7D0A94
:1056C0009FED7D0ABDEC048B70BD88EE889A19EEC3
:1056D000100AFFF718FF042808BF00F03FF918EE82
:1056E000900AFFF710FF054618EE100AFFF70BFFB0
:1056F000044619EE100AFFF706FF042D18BF052D0A
:1057000008D1042C18BF052C04D1002804BF0220A6
:10571000FAF7A6FEB0EE490ABDEC048B70BD42005C
:10572000B2EB410F3AD910F0004F19BFDFED630A19
:105730009FED630ADFED630A9FED630AB0EE481A3E
:105740000A46B1EE688A80F00041F0EE418A1046C8
:105750000A1A5200B2F1807F34D2484010F0004F54
:10576000DFED5A1A9FED5A2A1DBFBEEE001A70EEE9
:10577000E10A30EE420AB6EE001A08BF70EEA10A46
:1057800000E040E008BF30EE020AB0EE682A01EE09
:10579000482A08EE818AC2EE081A15E011F0004F7F
:1057A00004BF9FED4C0AF0EE400AD1D010F0004F3C
:1057B00019BFDFED490A9FED490ADFED490A9FED68
:1057C000490AC5E7C8EE881A21EEA11A9FED462ABC
:1057D000DFED462A41EE022A9FED452A01EE222AFC
:1057E000DFED442A41EE022A9FED432ABDEC048BF3
:1057F00001EE222A21EE811A01EE020A30EE210A80
:1058000030EE200A70BD4FF07F42B2EB400F28BF50
:10581000B2EB410F09D2F0EE480AB0EE680ABDECD7
:10582000048BBDE8704000F08DB840EA01035B00D6
:1058300008BF41F0FF410BD0B2EB400F08BFB2EB05
:10584000410F08D120F0804008EE900A21F08041FD
:1058500008EE101A18E7B2EB400F12BF5FEA4103DF
:1058600040F0FF4001F000413FF40EAFB2EB410FBA
:1058700012BF5FEA400200F0004041F0FF413FF4F8
:1058800003AF4A0092EA40033FF5FEAE002AACBFE8
:105890009FED1A0A9FED1A0A68EE808A28EE008AA8
:1058A00018EE900A18EE101AEEE60000DB0FC9BFE2
:1058B000DB0FC93FDB0F4940DB0F49C00000C9BF08
:1058C00022AAFDB90000C93F22AAFD390060ED3EC1
:1058D000C30ACE3700000000000049C022AA7DBAEA
:1058E0000000494022AA7D3A2DAD65BD8FB8D53D57
:1058F0000FB511BE61C84C3EA8AAAABE0000804FD9
:105900000000802F10B52DED028BB1EEC08A18EE8D
:10591000100A20F00040C0F1FF40C00F0AD010EE86
:10592000100A20F00040C0F1FF40C00F04BF01206A
:10593000FAF796FDB0EE480ABDEC028B10BD30EED2
:10594000000A704730EE200A70470000DFED020ABF
:1059500080EEA00A70470000000000009FED020AE0
:1059600020EE000A704700000000001070B52DED19
:10597000028B8AB005460C4616460DB104B11EB91D
:105980000AB0BDEC028B70BD94ED000AB5EEC00A02
:10599000F1EE10FA0DD194ED010AB5EEC00AF1EE68
:1059A00010FA06D194ED020AB5EEC00AF1EE10FA33
:1059B0007DD09FED600AB0EE408A002007900890ED
:1059C00009900490059006905B4A07CA01AB07C393
:1059D00095ED010AD5ED030A20EE200AD5ED000A67
:1059E00095ED021A00EEC10AF0EE000A20EE200A40
:1059F0008DED070A95ED000AD5ED010A20EE200A8B
:105A0000D5ED020A95ED031A00EE810AF0EE000AC8
:105A100020EE200A8DED080A95ED000A20EE000A1E
:105A2000D5ED030A95ED031A00EE810AF7EE000AA0
:105A3000B0EE001A51EE000ACDED090A01AB224684
:105A40003146284600F07AF8D4ED000A60EEA00A4C
:105A500094ED011AD4ED011A41EE210A94ED021AD7
:105A6000D4ED021A41EE210AB0EE600AFAF77DFD8C
:105A7000B0EE408A94ED000A20EE080A84ED000A98
:105A800094ED010A20EE080A84ED010A94ED020A61
:105A900020EE080A84ED020A94ED010ADDED090A00
:105AA00020EE200AD4ED020A9DED081A00E03EE047
:105AB00000EEC10A8DED040A94ED020ADDED070A3D
:105AC00020EE200AD4ED000A9DED091A00EEC10A6D
:105AD0008DED050A94ED000ADDED080A20EE200A9E
