:020000040800F2
:10000000084900202902000855250008052100089C
:100010005125000831040008AD2B00080000000045
:10002000000000000000000000000000D1250008D2
:100030007B0400080000000061250008F525000889
:10004000430200084302000843020008430200087C
:10005000430200084302000843020008430200086C
:10006000430200087D0400088304000843020008DE
:10007000630400084302000843020008430200082A
:100080004302000843020008430200083F0400083E
:1000900033040008430200084302000889040008F2
:1000A000430200084302000843020008430200081C
:1000B000E526000843020008430200084302000846
:1000C00043020008430200084302000843020008FC
:1000D00043020008952B000843020008A12B0008EA
:1000E00043020008430200084302000843020008DC
:1000F00043020008430200084302000843020008CC
:1001000043020008430200084302000843020008BB
:1001100043020008430200084302000843020008AB
:10012000430200084302000843020008430200089B
:100130004302000843020008430200085704000875
:100140004B04000843020008430200084302000871
:1001500043020008430200086F040008430200083D
:10016000430200084302000843020008430200085B
:100170004302000843020008430200080000000098
:10018000430200084302000800F002F800F03CF8C7
:100190000AA090E8000C82448344AAF10107DA45E2
:1001A00001D100F031F8AFF2090EBAE80F0013F0F8
:1001B000010F18BFFB1A43F001031847203A000053
:1001C000403A0000103A24BF78C878C1FAD85207E4
:1001D00024BF30C830C144BF04680C6070470000C1
:1001E0000023002400250026103A28BF78C1FBD840
:1001F000520728BF30C148BF0B6070471FB503F0DE
:10020000CAFC1FBD10B510BD00F0DCF81146FFF7A9
:10021000F5FF02F0B3FD00F0FAF803B4FFF7F2FFC8
:1002200003BC00F0FDF8000009488047094800477A
:10023000FEE7FEE7FEE7FEE7FEE7FEE7FEE7FEE796
:10024000FEE7FEE704480549054A064B70470000F3
:10025000D32600088901000808430020084900202F
:10026000084500200845002053EA020C00F0698090
:100270002DE9F04B4FF00006002B1FBFB3FA83F5BA
:1002800003FA05F424FA05F65E4012BF1643B2FAEB
:1002900082F502FA05F4C5F120051EBF22FA05FC1D
:1002A00044EA0C04203556EA044C4FEA144418BFC3
:1002B000641C4FF000084FF00009904271EB030CF2
:1002C00039D3002919BFB1FA81F701FA07F6B0FA5C
:1002D00080F700FA07F6C7F120071EBF20FA07FCD7
:1002E00046EA0C062037B6FBF4FCA7EB0507103FE7
:1002F00007F01F0BCBF120062CFA06F60CFA0BFBCD
:1003000044BFB3460026202FA4BF5E464FF0000B2B
:100310005BEA060C08BF4FF0010B19EB0B0948EB29
:100320000608ABFB027C06FB02CC0BFB03CCC01B1C
:1003300071EB0C01C1E70B46024641464846BDE859
:10034000F08B13B5084318BF4FF0FF300146AFF3F1
:100350000080BDE81C40704702F0FF0343EA03221F
:1003600042EA024200F002B84FF0000200B5134624
:1003700094469646203922BFA0E80C50A0E80C50C5
:10038000B1F12001BFF4F7AF090728BFA0E80C5076
:1003900048BF0CC05DF804EB890028BF40F8042B6F
:1003A00008BF704748BF20F8022B11F0804F18BFDC
:1003B00000F8012B7047704770477047004870473E
:1003C000400000207546FFF7F9FFAE46050069467C
:1003D000534620F00700854618B020B5FFF732FFDE
:1003E000BDE820404FF000064FF000074FF0000836
:1003F0004FF0000BAC46ACE8C009ACE8C009ACE873
:10040000C009ACE8C00921F007018D46704710B55E
:100410000446AFF300802046BDE81040FFF7FDBE64
:1004200001491820ABBEFEE726000200704700001D
:10043000FEE740F2B400C2F2000000F0BDB840F2A6
:10044000B400C2F2000000F0B7B840F2DC00C2F223
:10045000000000F0B1B840F2DC00C2F2000000F091
:10046000ABB840F28810C2F2000000F041BB40F28D
:100470002810C2F2000000F03BBB7047082000F0DB
:10048000A0BC102000F09DBC80B5202000F099FC9D
:10049000402000F096FC8020BDE8804000F091BC38
:1004A000EFF3108072B600BFFEE7704710B590F80A
:1004B0002040013C012C70D8D0F800C000290CBFAE
:1004C000DCF80C40DCF81040A4076CD00CEB011CED
:1004D000DCF8B0410CF5D87E14F004049460DCF82C
:1004E000B04119BFE4085460640D1460DEF80040A8
:1004F000002904F00204D460DCF8B44104F00F04D5
:100500001461DCF8B441C4F307249461DCF8B4410D
:100510004FEA14445461DCF8B8211A70026802EB07
:100520000112D2F8B8214FEA12225A70026802EB87
:100530000112D2F8B8214FEA12429A70026802EB17
:100540000112D2F8B8214FEA1262DA70026802EBA7
:100550000112D2F8BC211A71026802EB0112D2F822
:10056000BC214FEA12225A71026802EB0112D2F842
:10057000BC214FEA12429A71026802EB0112D2F8D2
:10058000BC214FEA1262DA7100680CBF00F10C0165
:1005900000F11001002020220AE000F124010120D6
:1005A0004FF4802204E000F1240101204FF40012F6
:1005B0000B681A430A6010BD2DE9F04F81B0044664
:1005C00000684669D0F804908768D0F80CB0D0F87D
:1005D00010A0D0F81880F10701D1002549E0F907F3
:1005E0000ED00121BA07816007D478071DD43807DF
:1005F00021D4204600F022FA02E0204600F01FFA43
:100600000025F8051CD520684FF48071BA0581607B
:1006100007D478050CD4380510D4204600F010FA21
:100620000EE0204600F00DFA0AE04FF40065E8E71E
:1006300005F5005504E04FF48055E2E705F58045E7
:10064000F80316D520684FF48031BA03816007D4CF
:10065000780309D438030AD4204600F0F3F908E0FF
:10066000204600F0F0F904E005F5004501E005F54D
:100670008035300707D51BF0100004D0206845F402
:1006800000751021C160700708D51BF0080005D067
:1006900020680821C160204600F096F9B00706D511
:1006A0002068C068800702D0204600F08EF97006EE
:1006B00007D51AF0100004D0206845F48065102199
:1006C0000161B00608D51AF0080005D0206808219D
:1006D0000161204600F0AFF9F00606D520680069F8
:1006E000800702D0204600F0A7F9B00308D519F022
:1006F000100005D0206810214160204600F09DF9CF
:10070000F00308D519F0080005D0206808214160E1
:10071000204600F099F9300440D55FEA49703AD597
:1007200006F4807008EA102028435FEA88710146C9
:1007300048BF41F00201B20558BF01465FEA487068
:100740000D4648BF45F00405700558BF0D463005FD
:1007500021D518F070001ED010380009052815D8D2
:10076000DFE800F00306090C0F1245F008050DE064
:1007700045F010050AE045F0200507E045F040058A
:1007800004E045F0800501E045F48075206881694A
:1007900021F0700181612068042141604DB1606ADF
:1007A00040EA05012046616201B0BDE8F04FFFF765
:1007B0007CBE01B0BDE8F08FB0B5C8B1044690F87A
:1007C000200010B9204600F06FF82068016841F061
:1007D0000101016000F0D7FB054600BF20684168B9
:1007E000C90707D100F0CFFB401B0B28F6D312E05E
:1007F0000120B0BD016821F00201016000F0C3FBDF
:10080000054600BF2068416889070BD500F0BBFB97
:10081000401B0B28F6D3606A052140F4003060626B
:1008200001203EE0217E0268012922F0800208BFFB
:1008300080320260617E0268012922F0400208BF16
:1008400040320260A17E0268012922F0200208BF26
:1008500020320260E17E0268012922F0100218BFF6
:1008600010320260217F0268012922F0080208BFCD
:1008700008320260617F0268012922F0040208BF89
:1008800004320260D4E901C2D4E9033561691A4334
:100890002A431143ACF101021143C161002001213F
:1008A000606284F82010B0BDB0B586B0044601A8DF
:1008B0001421FFF759FD206846F60001C4F200013B
:1008C000884231D046F20041C4F20001884279D119
:1008D00040F2A001C2F200010A6843F63000C4F2FF
:1008E0000200531C0B6052B900210091016941F0D4
:1008F00000710161016901F000710091009900210E
:1009000000910168142441F008010160006813257A
:1009100000F008000090009840F20040C4F202008D
:1009200000F50060032131E043F630000021C4F2FD
:1009300002000091026942F080620261026902F0E5
:1009400080620092009A40F2A002C2F20002136894
:100950005D1C15604BB90091026942F000720261A2
:10096000026902F000720092009A0091016840242E
:1009700041F00201016000683F2500F00200009094
:10098000009840F200406021C4F20200019102216F
:10099000029100210391032104910921059101A9EC
:1009A00000F01AFA28460521002200F0A3FB284691
:1009B00000F08EFB20460521002200F09BFB204624
:1009C00000F086FB06B0B0BD7047B0B5016846F6D2
:1009D0000002C4F20002914216D046F20042C4F274
:1009E0000002914218BFB0BD40F20414C2F20004EC
:1009F00004F11C05002122462B46FFF757FD40F26B
:100A00000002C2F2000210E040F20414C2F200043C
:100A100004F11C05002122462B46FFF747FD40F25A
:100A20000000C2F2000000F1180220462946BDE88D
:100A3000B04002F0BDB870477047704770477047CC
:100A400070477047704770477047000070B5866DFB
:100A5000044600F098FA94F83510022925D105468D
:100A60002068216C026822F016020260426922F0BE
:100A70008002426109B9A16C19B1016821F0080135
:100A80000160016821F00101016000BF2068006879
:100A9000C0070ED000F077FA401B0628F6D32020BE
:100AA0006065032084F835000CE08020606501203B
:100AB00008E0E06D3F2101FA00F0B060012084F809
:100AC00035000020002184F8341070BD90F83510F6
:100AD000022909D1052180F835100068016821F04C
:100AE00001010160002070478021416501207047AD
:100AF000F0B581B004460020009040F23000C2F210
:100B000000000268D4E9166048F2B513376808217E
:100B1000C1F64E3381403942A2FB03250CD0226836
:100B200013685B0708D5136823F004031360B160F2
:100B3000616D41F00101616501218140394208D0B8
:100B400022685269120604D5B160616D41F002015C
:100B5000616504218140394208D0226812689207F9
:100B600004D5B160616D41F00401616510218140DF
:100B7000394217D020680268120713D5B1600268A5
:100B80000168520306D4C90506D4016821F00801A2
:100B9000016001E0080301D4216C00E0A16C09B1FF
:100BA00020468847E16D202000FA01F23A423CD00D
:100BB00020680368DB0638D5B26094F835300268E7
:100BC000052B1AD122F016020260426922F080023F
:100BD0004261226C0AB9A26C1AB1026822F00802C2
:100BE00002603F208840B060012084F83500216D0C
:100BF000002084F83400B9BB3BE0016852030CD4F8
:100C0000C9050ED4016821F010010160012084F8AB
:100C10003500002084F8340003E0080301D4616C3F
:100C200000E0E16B09B120468847606D08B3606D54
:100C3000C00717D0052084F835002068A90A02688B
:100C400022F00102026000BF009A01328A42009243
:100C500002D80268D207F7D1012084F835000020BD
:100C600084F83400E16C21B1204601B0BDE8F040C9
:100C7000084701B0F0BD00002DE9F041044600F046
:100C800082F9C4B10546022084F8350000202168AD
:100C900084F83400086820F00100086021680868C2
:100CA000C0070BD000F06FF9401B0528F6D90325CB
:100CB0002023032064E00120BDE8F081086848F2A9
:100CC0003F02CFF21002D4E9013500EA020C04F130
:100CD0000C0898E8C10143EA0C032B431843D4E9FC
:100CE000072E304338431043626A40EA0E00042A5C
:100CF00040EA08031CD1206BD4E90A2E40EA0E001A
:100D0000184308604869BEF1000F20F0030040EA74
:100D1000020040F0040C11D0B8F5005F35D0B8F1F6
:100D2000000F42D1022A43D0012A38D0002A3EE0E7
:100D30000B60486920F0070040EA020C01F0F8005F
:100D40004AF6AB221038CAF6AA22A0FB02231A09DF
:100D500043F6C833C0F600039A5C40F2FF335F28C5
:100D60004FF03F00C1F814C021EA030100FA02F07D
:100D700088BF0431C4E916128860002301250020D1
:100D8000636584F83550BDE8F081032AD6D8012583
:100D900040230120DFE802F0020C0203F0E7AEF18D
:100DA000C070B0FA80F0400904E0032A04D3C5D132
:100DB000CEF300600028C1D0012540230120DFE7E9
:100DC000704743F61441C4F201010A68024214BF9D
:100DD00008607047FFF7F4BF2DE9F04F82B000F1D3
:100DE0003E4241F6004502F1FF77C4F202050822B7
:100DF00043F6004E4FEAB726A84208BF0722C4F2C6
:100E0000010E072E38BF4FEAB72201250026002722
:100E10004FF00008009200BF0C6805FA08F914EAC8
:100E2000090F00F09F80D1F804B003220BF0030CEF
:100E3000ACF10104B240012C6FEA020A10D88268BA
:100E4000CC6802EA0A02B440224382604268CBF3D3
:100E5000001422EA090204FA08F42243426005E081
:100E6000BCF1030F02D14FF0030C20E0C2688C6884
:100E700002EA0A02B4402243BCF1020FC26016D15A
:100E80006FF0030202EA58020244D2F820C007F0D1
:100E90001C050F230C69AB402CEA030304FA05F58B
:100EA0002B431362D1F804B001250BF0030C026848
:100EB0000CFA06F302EA0A021A431BF4403F0260EE
:100EC00050D0002243F644030192C4F202031A6890
:100ED0004FF6084C42F480421A601A68CFF6FF7C45
:100EE00002F480420192019A28F00302724452F8FF
:100EF0000C3007F00C050F24AC40A343009C04FA0F
:100F000005F52B4342F80C30DEF808204B6842EA26
:100F1000090543F60C4CDC0258BF22EA0905CEF85D
:100F20000850C4F2010CDCF800209C0242EA0905DA
:100F300058BF22EA0905CCF80050DEF804209C03D3
:100F400042EA090558BF22EA0905CEF80450DEF846
:100F50000020DB0342EA090558BF22EA0905CEF862
:100F60000050012508F101080437B8F1100F06F10F
:100F700002067FF451AF02B0BDE8F08F002A08BF2F
:100F800009048161704744F20000C2F20000006869
:100F9000704740F2340044F20001C2F20000C2F295
:100FA000000100780A6810440860704780B543F675
:100FB0000040C4F20200016841F400710160016860
:100FC00041F480610160016841F480710160032097
:100FD00000F0BBF80F2000F004F800F058F80020F3
:100FE00080BD70B586B0002543F640010195C4F27E
:100FF00002010A68044642F001020A60096801A879
:1010000001F0010101910199694600F056F9049E31
:10101000002E18BF012600F06FF94DF68361B04035
:10102000C4F21B31A0FB01014FF0FF3000EB9141F6
:1010300040F28820C2F200004FF0804240F2E733D5
:10104000C0E90021C0E902530561856100F004FC9C
:101050000546C8B940F28820C2F2000000F041FC09
:10106000054688B91C2000F033F80F2C0BD81C2043
:1010700021460022002500F03DF840F23800C2F27F
:101080000000046000E00125284606B070BD82B073
:10109000002043F640010190C4F202014A6842F484
:1010A00080424A604A6802F480420192019A0090AC
:1010B0000868002240F08050086008680F2100F0A6
:1010C0008050009000986FF0010002B000F012B85C
:1010D00000280ED4C1B200F01F00012202FA00F075
:1010E0004EF20012CEF2000242EAD10121F00301D9
:1010F0000860704710B54EF60C5CCEF2000CDCF8C0
:101100000030C3F3022E8EF00704042C28BF042401
:10111000BEF103034FF0FF3E0EFA04F438BF002384
:10112000A14399400EFA03F39A43114300F00F02D2
:1011300000F160430901043A03F564436244002866
:1011400048BF02F10C03197010BD4EF60C51CEF2DF
:1011500000010A684FF6FF031A4060F30A2242F0CA
:10116000806040F0FD700860704700002DE9F0419C
:10117000002878D043F60008C4F202080446D8F8E4
:1011800000040D4600F00700884207D288F800549A
:10119000D8F8000400F00700A84264D12068810755
:1011A00017D5410705D5D8F8081041F4E051C8F823
:1011B0000810010705D5D8F8081041F46041C8F8B7
:1011C0000810D8F80810A26821F0F0011143C8F8FF
:1011D0000810C0073FD1D8F8000400F00700A8426B
:1011E00007D988F80054D8F8000400F00700A84296
:1011F00039D12068410707D5D8F80810E26821F4F2
:10120000E0511143C8F80810000708D5D8F80800C5
:10121000216920F4604040EAC100C8F8080000F0ED
:1012200091F8D8F8081043F6B032C1F30311C0F6B4
:101230000002515C40F2300220FA01F140F2380025
:10124000C2F200000068C2F200021160FFF7C9FE9E
:101250000020BDE8F0816068811E022906D2D8F81E
:101260000010890108D40120BDE8F08101281FD1B8
:10127000D8F800108903F6D5D8F8081021F003013A
:101280000843C8F80800FFF77EFE064641F288379B
:10129000D8F80800616800F00C00B0EB810F9AD01C
:1012A000FFF771FE801BB842F2D90320BDE8F08140
:1012B000D8F800108907D6D5DEE70F22026043F682
:1012C0000802C4F20202136803F0030343601368C8
:1012D00003F0F0038360136803F4E053C360D2F8B3
:1012E00000C04FF4E05303EADC030361D2F8F803D3
:1012F00000F007000860704740F2300043F6080134
:10130000C2F20000C4F202010068096843F6C0326C
:10131000C1F38221C0F60002515CC840704740F220
:10132000300043F60801C2F20000C4F20201006876
:10133000096843F6C032C1F34231C0F60002515C85
:10134000C840704710B543F60404C4F20204606854
:1013500000F00C0008280AD0042819BF42F200400F
:10136000C0F2F40041F60030C0F2B70010BD2068B2
:1013700021682368490241F60031C0F2B70100F04C
:101380003F02C3F388105CBF42F20041C0F2F40197
:10139000A1FB00010023FEF767FF21680222C1F3D1
:1013A000014102EB4101B0FBF1F010BD2DE9F0412C
:1013B00082B0002866D00446007843F60006C007D5
:1013C000C4F202060BD0B06800F00C00042840F014
:1013D00098803068800302D56068002852D0207859
:1013E00080071AD5B06810F00C0F09D0B06800F073
:1013F0000C00082840F09F807068400200F19B803C
:101400003068800702D5E06801283BD13068216947
:1014100020F0F80040EAC10030602078000733D4A3
:101420002078400747D4A56955B3B06800F00C0098
:10143000082840F0B380012D24D07068E16900F4E1
:1014400080028A421ED1216A00F03F028A4219D1ED
:1014500047F6C071626A0140B1EB821F12D1A16AE6
:101460004FF6FF73C903994300F44032A1F5803170
:101470008A4207D1E16A00F07060B0EB016F01D1E0
:101480000020F1E00120EFE06069002840F2000058
:10149000C4F2472072D00121C0F8801EFFF773FD0F
:1014A000054600BF706F8007BAD4FFF76CFD401B84
:1014B0000228F7D9D7E0306C10F080580AD100200C
:1014C0000190306C40F080503064306C00F08050FF
:1014D0000190019847F20007C4F200073868C00580
:1014E0003ED4386840F480703860FFF74CFD054604
:1014F0003868C00534D4FFF746FD401B0228F7D9F1
:10150000B1E0B06800F00C00082803D17068400218
:101510003FF55FAF6068B0F5803F07D0B0F5A02F12
:1015200040F08B80306840F480203060306840F4B8
:10153000803030608BE0E068002851D00020C4F299
:10154000472001210160FFF71EFD05463068800736
:101550003FF55CAFFFF717FD401B0228F6D982E08C
:10156000A068012805D005284ED1306F40F0040056
:101570003067306F40F0010030674FE00021C0F865
:10158000801EFFF700FD0546706F80077FF548AFAE
:10159000FFF7F9FC401B0228F6D964E00027C4F2EB
:1015A000472700203866FFF7EEFC022D05460BD1D9
:1015B000306880015BD5FFF7E6FC401B02284FF046
:1015C0000300F5D950E000BF306880017FF558AFC7
:1015D000FFF7D9FC401B02284FF00300F4D943E089
:1015E0000020C4F2472000210160FFF7CCFC054633
:1015F000306880077FF511AFFFF7C5FC401B02285C
:101600004FF00300F4D92FE0316F002821F00101E1
:101610003167316F21F00401316749D0FFF7B3FC26
:10162000054641F2883700BF306F800751D4FFF77D
:10163000AAFC401BB842F7D915E03168002821F414
:1016400080313160316821F4802131604AD0FFF768
:101650009AFC0546306880033FF5C1AEFFF793FC66
:10166000401B6428F6D9032002B0BDE8F08104F1E4
:101670001C052FCD084340EA8210D9034FF6FF72B4
:101680009143A1F5803140EA056008437060012074
:101690003866FFF778FC0446306880013FF5F0AE0D
:1016A000FFF771FC001B02284FF00300F4D9DBE7C1
:1016B000FFF769FC054641F2883700BF306F8007AD
:1016C00007D5FFF760FC401BB8424FF00300F5D987
:1016D000CAE7B8F1000F7FF4A6AE306C20F080505E
:1016E0003064A0E6FFF74FFC054600BF306880037A
:1016F0007FF575AEFFF747FC401B64284FF00300F1
:10170000F4D9B1E770B538B10446406A30B1002071
:10171000206104F1140007E001264BE06068B0F599
:10172000827F03D004F11C00002101600026A66224
:1017300094F8510020B9204684F8506000F03CF83D
:10174000022084F8510094E80F0001F482710568CA
:1017500002F4044225F040050560114403F40062E0
:101760002369114403F002026369114403F001028A
:10177000A369E569114403F40072114405F03802CD
:10178000256A114405F08002A56A114305F4005250
:1017900011430160626A042101EA134102F0100260
:1017A00011444160C16921F40061C1610120666595
:1017B00084F85100304670BD2DE9F04385B00068D3
:1017C00043F20005C4F20105A84240D1002043F6CF
:1017D00030010090C4F202014A696C4642F4805222
:1017E0004A614A694FF0020802F480520092009A5E
:1017F00000900A684FF0010942F002020A600A688C
:10180000032602F002020092009A00900868052761
:1018100040F0010008600868214600F001000090D7
:1018200000981820009005F55440CDF80480CDF8BC
:10183000089003960497FFF7CFFA80208DE8010304
:1018400005F550402146CDE90367FFF7C5FA05B01D
:10185000BDE8F0837047704740B310B5044690F878
:101860003D0028B9002084F83C00204600F020F814
:10187000022084F83D002068211D00F039FF01207E
:1018800084F8460084F83E0084F83F0084F8400065
:1018900084F8410084F8420084F8430084F844004E
:1018A00084F8450084F83D00002010BD01207047F9
:1018B00081B0006844F20041C4F2010188420ED1B7
:1018C0000020009043F64400C4F20200016841F495
:1018D00000310160006800F400300090009801B011
:1018E000704790F83D1001291CBF0120704702216C
:1018F00080F83D10006841F2FF72C168C4F2000236
:10190000904241F00101C1600BDC40F2FF71C4F272
:101910000001884213DCB0F1804F27D040F2004133
:1019200015E040F2FF31C4F20101884212DC41F6B9
:101930000001C4F20001884218D0002112E040F6F4
:101940000001C4F20001884210D040F60041C4F208
:10195000000109E044F20001C4F20101884205D00F
:1019600040F20041C4F20101884204D1816801F0D3
:101970000701062903D0016841F001010160002040
:101980007047704710B5016804460869800744BF76
:10199000C8685FEA807038D40869400744BFC868E7
:1019A0005FEA40703DD40869000744BFC8685FEA39
:1019B000007043D40869C00644BFC8685FEAC060CD
:1019C00048D40869C0071CBFC8685FEAC0704ED120
:1019D0000869000644BFC8685FEA00604FD4086920
:1019E000400644BFC8685FEA406050D4086980067A
:1019F00046BFC8685FEA806010BD6FF020022046D5
:101A00000A61BDE81040FFF726BF6FF002000861D1
:101A1000012020778869800741D02046FFF7B1FF79
:101A200043E06FF00400086102202077886910F419
:101A3000407F3ED02046FFF7A4FF40E06FF0080053
:101A4000086104202077C86980073CD02046FFF752
:101A500098FF3EE06FF01000086108202077C86909
:101A600010F4407F39D02046FFF78BFF3BE06FF04A
:101A700001000861204600F0DDF82168A8E76FF05A
:101A8000800008612046FFF7E5FE2168A7E76FF0B8
:101A900040000861204600F0D4F82168A6E72046FF
:101AA00000F04CF8204600F0C4F8216800202077B0
:101AB00072E7204600F042F8204600F0BAF82168AC
:101AC000002020776FE7204600F038F8204600F02D
:101AD000B0F82168002020776CE7204600F02EF84F
:101AE000204600F0A6F821680020207769E780B53D
:101AF00086B0016844F20040C4F2010081421BD16B
:101B0000002143F630020191C4F20202136800F58D
:101B1000504043F020031360126802F0200201924B
:101B2000019A402201920222CDE90221049103216F
:101B3000059101A9FFF750F906B080BD704700007C
:101B4000B0B5044690F83C00012804BF0220B0BDA7
:101B50000D464FEAB2010120032984F83C0037D832
:101B6000DFE801F0020A12222068294600F04EFE4A
:101B7000206850F8181F0EE02068294600F078FE13
:101B8000206850F8181F16E02068294600F0A4FECF
:101B9000206850F81C1F41F008010160016821F025
:101BA0000401016029690FE02068294600F0C7FEA2
:101BB000206850F81C1F41F400610160016821F4A5
:101BC00080610160296909020268114301600020F7
:101BD000002184F83C10B0BD40B310B5044690F825
:101BE0003D0028B9002084F83C00204600F020F891
:101BF000022084F83D002068211D00F079FD0120BD
:101C000084F8460084F83E0084F83F0084F84000E1
:101C100084F8410084F8420084F8430084F84400CA
:101C200084F8450084F83D00002010BD0120704775
:101C3000704770470068B0F1804F18BF7047FFF7DA
:101C4000A8B9704770477047B0B582B004460068C5
:101C50000168C368426901F02F05202D03F02005BB
:101C600006D12DB1204602B0BDE8B04000F0BCBEA8
:101C70005FEA017C1EBF02F0010E03F4907212EBCA
:101C80000E027CD1226B012A05D111F0100218BF7F
:101C900013F0100239D10A0623D513F0800220D0A8
:101CA00094F83D10212940F01981A168B1F5805FB9
:101CB00003D12169002900F01981216A4A1C22629E
:101CC00009784160E18C01390A04E18440F0068121
:101CD000C16821F08001C160C16841F04001C1606C
:101CE000FCE0490640F1FA8013F0400100F0F68074
:101CF000C16821F04001C1602021204684F83D10D8
:101D000002B0BDE8B04000F0FBB9002101910168CC
:101D100001914168019101994069400600F190806C
:101D2000A08DE18DE28D002A00F0D880884200F07D
:101D3000D580401A216851E8031F226821F4907170
:101D400042E80313002BF5D1216851E8051F2268F2
:101D500021F0010142E80513002BF5D1202184F880
:101D60003E100021216300BF216851E8031F226853
:101D700021F0100142E80313002BF5D1A2E0CA07BD
:101D800018BF13F4807203D0226C42F00102226467
:101D90004A0706D5BEF1000F03D0226C42F00202C2
:101DA00022648A0706D5BEF1000F03D0226C42F0F0
:101DB00004022264BCF1000F09D545EA0E02B2FA12
:101DC00082F2520903D1226C42F008022264226C92
:101DD000002A00F0838011F0200118BF002D03D0ED
:101DE000204600F001FE20684069216C00F04000B0
:101DF00001F0080140186CD0204600F0CDFD2068AD
:101E0000406940066CD500BF206850E8050F216886
:101E100020F0400041E80502002AF5D1A06B00281F
:101E20005ED042F68D11C0F600010165FEF74EFE50
:101E3000002853D0A06B016D02B0BDE8B040084748
:101E4000A16B0868426893B2002B47D0A08D8342F3
:101E500044D2E285C969B1F5807F31D0206850E86D
:101E6000030F216820F4807041E80302002AF5D1B5
:101E7000206850E8050F216820F0010041E80502C4
:101E8000002AF5D1206850E8050F216820F04000B5
:101E900041E80502002AF5D1202084F83E00002008
:101EA000206300BF206850E8030F216820F0100075
:101EB00041E80302002AF5D1A06BFEF7C7FDA08D13
:101EC000E18D401A81B2204602B0BDE8B040FFF774
:101ED000B9BE2046FFF7B7FE0020206402B0B0BDB7
:101EE000204602B0BDE8B040FFF7ADBE216A31F830
:101EF000022B6FF35F2242602162E3E650B310B51C
:101F0000044690F83D0028B9002084F83C002046A3
:101F100000F022F8242084F83D002068C16821F4F4
:101F20000051C160204600F0C1FD2068016921F424
:101F300090410161416921F02A014161C16841F488
:101F40000051C16000202021206484F83D1084F8F5
:101F50003E1010BD012070472DE9F04786B00446C1
:101F600001A81421FEF700FA206844F60001C4F22B
:101F7000000188426DD041F20001C4F201018842A3
:101F800040F0BA80002743F630000097C4F2020008
:101F90004169002541F0100141614169C4F2020527
:101FA00001F01001009100990097016801AE41F025
:101FB0000201016001684FF0020801F00201009186
:101FC0000099009701684FF0030941F00101016099
:101FD00000684FF0070A00F0010000900098802090
:101FE000019005F580603146CDE90287CDF810906B
:101FF000CDF814A0FEF7F0FE4FF40070CDE9010813
:1020000003A880E8800628463146FEF7E5FE46F242
:102010002800C4F2020040F2281500F59260C2F2D6
:1020200000054FF0006140224FF4806385E887008F
:1020300005F1140014212B61FEF796F92846FEF7EE
:102040001BFE08B1FEF72CFA656305F13800252563
:1020500049E0002643F630000096C4F20200016910
:1020600041F480210161016901F48021009100990E
:102070000096016841F004010160006801A900F0C8
:102080000400009000984FF4406001900220CDE9D8
:10209000020603200490072005900020C4F20200ED
:1020A00000F50060FEF798FE40F2881546F2280021
:1020B000C2F20005C4F202004FF000614FF48062EA
:1020C00085E8430005F114001421C5E90362FEF719
:1020D0004BF92846FEF7D0FD08B1FEF7E1F9A563FC
:1020E00005F1380027250460284605210022FFF766
:1020F00001F82846FEF7ECFF06B0BDE8F087704710
:1021000070470000FEE7000080B500BF012000F02E
:102110004EFEFBE780B540F2B40046F20041C2F249
:102120000000C4F200010322002380E80E0000F149
:102130000C014FF4102C4FF4001E81E808504FF4AE
:1021400080710183C0F81A30FEF736FB18B1BDE884
:102150008040FEF7A5B980BD80B540F2DC0046F6B0
:102160000001C2F20000C4F200010322002380E853
:102170000E0000F10C014FF4102C4FF4001E81E80A
:1021800008504FF480710183C0F81A30FEF714FB39
:1021900018B1BDE88040FEF783B980BD80B582B03C
:1021A000002043F630010190C4F202010A6842F4B3
:1021B00000120A600A6802F400120192019A00906B
:1021C0000868002240F4800008600868052100F4D7
:1021D0008000009000980C20FEF78CFF0C20FEF78A
:1021E00077FF462005210022FEF784FF462002B03B
:1021F000BDE88040FEF76CBF80B588B00B4802AFE9
:1022000001900AA000F1040E9EE80E50806987E854
:102210000E50079001A8002100F0D6FD40F2583181
:10222000C2F20001086008B080BD00BFD03B0008CA
:102230000921000803000000000000000001000068
:1022400000000000000000002DE9F04F87B00024DE
:1022500043F63000CDE905440194C4F20200016860
:1022600040F2000841F0020101600168C4F2020876
:1022700001F00201019101990194016808F50069DA
:1022800041F0010101600168002201F001010191AA
:102290000199019401684FF4807B41F008010160CD
:1022A000016801F00801019101990194016841F070
:1022B00004010160016801F0040101910199019498
:1022C000016841F480710160016801F4807101913D
:1022D00001990194016841F080010160016801F0F9
:1022E0008001019101990194016841F04001016070
:1022F000016801F04001019101990194016841F0E8
:102300002001016000684FF4807100F0200001900E
:1023100001984846FEF732FE08F5C0563046402187
:1023200001220125FEF72AFE404610210022FEF779
:1023300025FE08F5806A504641F201010022FEF7B1
:102340001DFEC02002904FF4881002AFCDE90304B7
:1023500008F500503946FEF73FFD48463946CDE9BD
:1023600002B5CDE90444FEF737FD4020CDE9020572
:1023700030463946CDE90455FEF72EFD082002907F
:102380004FF4041B30463946CDE903B4FEF724FD73
:102390001020CDE9020502264046394604950596EF
:1023A000FEF71AFD3020CDE9020B48463946049469
:1023B000FEF712FD4FF48050CDE902055046394634
:1023C000CDE90455FEF708FD50463946CDE90255E2
:1023D000CDE90456FEF700FD092005210022FEF795
:1023E00089FE0920FEF774FE0A2005210022FEF76F
:1023F00081FE0A20FEF76CFE172005210022FEF761
:1024000079FE1720FEF764FE07B0BDE8F08F10B527
:1024100040F2E81043F20001C2F20000C4F20101F0
:102420004FF4827200234FF0010C4FF4007E102411
:1024300080E80E000A21C0E90333C0E905CEC4617B
:10244000C0E90833C0E90A31FFF75CF918B1BDE80B
:102450001040FEF725B810BD80B588B040F240208E
:1024600044F200420021C2F20000C4F201025323F0
:1024700040F2CF7CCDE90611CDE90411C0E900237B
:10248000C0E9021C01618161FFF7E6F908B1FEF7BE
:1024900007F840F24020C2F20000FFF79DFB08B1B0
:1024A000FDF7FEFF602001900020CDE902000590BD
:1024B00040F24020C2F2000001A90022FFF740FBD9
:1024C00008B1FDF7EDFF40F24020C2F20000FFF737
:1024D0000EFB08B080BD80B540F2D02041F2000173
:1024E000C2F20000C4F2010100234FF00C0C4FF4C3
:1024F000E13280E80E00C0E90333C0E905C3C361DF
:10250000FFF7FCFC18B1BDE88040FDF7C9BF80BDF6
:1025100080B540F2143044F60001C2F20000C4F26B
:10252000000148F2A06200234FF00C0CC0F201023F
:1025300080E80E00C0E90333C0E905C3C361FFF7BB
:10254000DDFC18B1BDE88040FDF7AABF80BD0000EA
:10255000FEE70000FEE700000000000000000000B1
:10256000EFF30980BFF36F8F154B1A681EF0100F41
:1025700008BF20ED108A20E9F04F10602DE9090016
:102580004FF0500080F31188BFF34F8FBFF36F8F70
:1025900001F068F84FF0000080F31188BDE80900F1
:1025A00019680868B0E8F04F1EF0100F08BFB0ECD3
:1025B000108A80F30988BFF36F8F704700BF00BF98
:1025C0005C0300200000000000000000000000008C
:1025D000074B19680868B0E8F04F80F30988BFF32B
:1025E0006F8F4FF0000080F31188704700BF00BF6D
:1025F0005C03002080B54FF0500080F31188BFF3DA
:102600006F8FBFF34F8F01F06DF930B14EF604506C
:10261000CEF200004FF080510160002080F311885D
:1026200080BD0000B0B592B0002401A81421CDE90E
:102630000A44CDE90844FDF797FE43F640000094B4
:10264000C4F202000168022541F080510160006877
:1026500000F080500090009847F200000094C4F20F
:102660000000016841F480410160006800F480408E
:1026700000900098012006904FF4803007904FF4AE
:1026800080000D9006200E90A820CDE90F050420B3
:10269000119006A80C95FEF789FE20B1EFF310808B
:1026A00072B600BFFEE70F20CDE901054FF4A05040
:1026B00004904FF48050059001A805210394FEF783
:1026C00055FD20B1EFF3108072B600BFFEE712B0E7
:1026D000B0BD4EF68850CEF20000016841F47001A2
:1026E0000160704740F28820C2F20000FFF74AB94B
:1026F00010B540F6FF3E0368C4F2000E40F2004CF5
:102700007045C4F2010C0DDCB0F1804F17D040F2DF
:102710000042C4F20002904211D040F60002C4F21E
:1027200000020AE040F60042C4F20002904206D0E5
:10273000604504D00022C4F20102904203D14A68ED
:1027400023F07003134341F6FF72C4F2000290427B
:102750000DDC70451FDCB0F1804F3FD040F20042ED
:10276000C4F20002904239D040F6000221E043F664
:10277000FF72C4F2010290421EDC42F20002C4F277
:10278000000290422AD00022C4F20102904225D0D9
:10279000604523D026E040F60042C4F20002904299
:1027A0001CD041F60002C4F20002904216D041F65D
:1027B0000042C4F200020FE044F20002C4F201023F
:1027C00090420BD044F60002C4F20102904205D0C0
:1027D00044F20042C4F20102904203D1CA6823F4D9
:1027E0004073134323F080024B69D1F800E08C68FA
:1027F0001A430260C46240F48062C0F828E0624577
:1028000004BF096901630121416110BDB0B5026ACD
:1028100040F2004522F001020262026AD0F804E0B0
:10282000D0F818C08C6822F0020240F48063C4F231
:102830000105AB4242EA040205D1CC6822F00C0249
:1028400024F0040422430C68AB4207D1D1E90553BC
:102850002EF4407E45EA0E0545EA030E2CF0730384
:102860002343C0F804E08361496841630262B0BD5C
:1028700070B5026A40F2004422F010020262026A5D
:10288000D0F804E0D0F818C08B6822F0200540F49E
:102890008062C4F20104A24245EA031307D1CD6865
:1028A0006FF0400623F0C00306EA05152B430D68C0
:1028B000A24206D1D1E905242EF44066224346EA1D
:1028C000820E2CF4E64242EA0522C0F804E082615E
:1028D00049688163036270BD70B5026A40F20044CA
:1028E00022F480720262026AD0F804E0D0F81CC0C0
:1028F0008B6822F4007540F48062C4F20104A242A5
:1029000045EA032307D1CD6840F2FF462D0223F4A8
:102910004063B5432B430D68A24206D1D1E905249B
:102920002EF44056224346EA021E2CF073022A433C
:10293000C0F804E0C2614968C163036270BD70B54C
:10294000026A40F2004622F480520262026A436840
:10295000D0F81CE00C68D1F808C040F48065C4F2DF
:102960000106B54204D14D6923F4804343EA85133F
:102970002EF4E64646EA04264360C66122F400527D
:10298000496842EA0C320164026270BD806B00212A
:10299000C185C184FFF757B9016851E8031F026878
:1029A00021F4907142E80313002BF5D1016851E83E
:1029B000051F026821F0010142E80513002BF5D143
:1029C000016B01290AD100BF016851E8031F0268A9
:1029D00021F0100142E80313002BF5D1202180F8EB
:1029E0003E1000210163704781B090F83E1022290B
:1029F00020D183680246B3F5805F08D152F8281FC2
:102A000052F8183C002B46D003685B6809E052F886
:102A1000281F13B90369002BF6D003685B6803F025
:102A20007F030B70116801311160C18D01390A04F7
:102A3000C18501D001B070470168CA6822F0200248
:102A4000CA60CA6822F48072CA604A6922F0010230
:102A50004A61202180F83E10016B012923D1002119
:102A6000016300BF016851E8031F026821F01001F3
:102A700042E80313002BF5D101680A68D20606D597
:102A8000002200920A680092496800910099818DA5
:102A900001B0FFF7D7B8026852686FF35F2221F8E0
:102AA000022B8162C1E701B0FFF729BB10B50446D4
:102AB0000068D4E902C22369016921F4405111433D
:102AC0000161626943EA0C01E3691143C268194379
:102AD00049F20C639A431143C1604169A26921F430
:102AE000407141F20043114340F48062C4F201039B
:102AF0009A42416102D1FEF712FC01E0FEF7FCFBB5
:102B0000E16963681922B1F5004FA0FB020120D1F1
:102B10005A00DB0FFDF7A8FB48F21F51C5F2EB117D
:102B2000A0FB01235A094FF69C73C0F6FF7303F113
:102B3000805302FB0300322303EBC000A0FB010122
:102B40004FF4F87000EA111000EB0210C1F34211CB
:102B50001CE09A009B0FFDF787FB48F21F51C5F25E
:102B6000EB11A0FB01235A094FF69C73C0F6FF73CB
:102B700002FB0300322303EB0010A0FB0101F02055
:102B800000EA511000EB0210C1F343110844216820
:102B9000886010BD40F2D020C2F20000FFF754B8A8
:102BA00040F21430C2F20000FFF74EB8FEE700001A
:102BB000B0B500681368984240F0D580887990736A
:102BC000088800BA000C9081488800BA000C508137
:102BD000888800BA000C1081107D032888BFB0BD22
:102BE0000FF20401DFE800F00288345E547D40F209
:102BF000A40CC2F2000CB2F90C305CF824104EF2B6
:102C00000000591ACFF6FF70B8BF4FF4005010EB18
:102C1000010E4CF82430F44648BFCEF1000C0029D8
:102C20000B4600D54B4240F2AC00C2F2000050F817
:102C300024509C4538BF7146294400EE101A9FED80
:102C40004D1AB8EEC00A40F8241020EE010A84E0C4
:102C5000507D40F2A405C2F20005B2F90C3055F8DF
:102C600020104EF20004591ACFF6FF74B8BF4FF48B
:102C7000005414EB010EF44645F8203048BFCEF165
:102C8000000C00290B4600D54B4240F2AC04C2F2C6
:102C9000000454F820509C4538BF714629449FEDEC
:102CA000341A52E0507D40F2A405C2F20005B2F998
:102CB0000C3055F820104EF20004591ACFF6FF746C
:102CC000B8BF4FF4005414EB010EF44645F8203021
:102CD00048BFCEF1000C00290B4600D54B4240F214
:102CE000AC04C2F2000454F820509C4538BF714631
:102CF00029449FED1D1A28E0507D40F2A405C2F240
:102D00000005B2F90C3055F820104EF20004591AA3
:102D1000CFF6FF74B8BF4FF4005414EB010EF44625
:102D200045F8203048BFCEF1000C00290B4600D5F5
:102D30004B4240F2AC04C2F2000454F820509C45CF
:102D400038BF714629449FED091A00EE101AB8EEFB
:102D5000C00A80EE010A44F820109FED071A20EE09
:102D6000010A82ED010AB0BD000018482CA01948E4
:102D700000009048000000390000B443FEF716F947
:102D8000FFF750FCFFF760FAFFF708FAFFF7C2F908
:102D9000FFF7E2F9FFF73BFBFFF75EFBFFF79BFB5B
:102DA000FFF7B6FBFFF728FA00F009F8FEE780B559
:102DB000002808BF012000F0E5FB002080BD80B5A1
:102DC00000F008FC002080BDB0B584B043698E4699
:102DD0008BB184697CB10589D0E9001C026928B2F5
:102DE000843D18BFC51CCDE900536046734602946C
:102DF00000F03CFD13E00589D0E90013028A28B2F7
:102E0000843D18BFC51C03AC184673460095019459
:102E100000F0FFFC0399012818BF0021084604B008
:102E2000B0BDF0B581B00C4644F2003140F25C36E2
:102E3000C2F20001C2F200060F683168002281F878
:102E4000522031680546081D00F0A0FA60B93068CC
:102E500044F21402C06AC2F200020121136801FAAE
:102E600000F023EA00001060681C0BD154B13068F8
:102E7000011D44F2D820C2F2000001B0BDE8F040CC
:102E800000F0CFBA30687C1944600BD340F2683050
:102E9000C2F2000000683168043101B0BDE8F040C2
:102EA00000F0A2BA40F26030C2F20000006831685F
:102EB000043100F099FA44F2A420C2F20000016843
:102EC0008C4238BF046001B0F0BD00002DE9F0472E
:102ED000044600F0BFFA44F20400C2F200000168A8
:102EE00040F25C3701310160C2F20007396844F2F8
:102EF000CC2A40F26C36C2F2000AC2F2000651B18E
:102F0000DAF8000000283DD13868E16AC06A8842DA
:102F100098BF3C6036E03C600068012832D1002553
:102F2000701900F052FA14358C2DF9D144F21C08B6
:102F3000C2F20008404600F048FA44F23009C2F2FA
:102F40000009484600F041FA44F2B820C2F20000FD
:102F500000F03BFA44F2EC20C2F2000000F035FA37
:102F600044F2D820C2F2000000F02FFA40F26030A4
:102F7000C2F20000C0F8008040F26830C2F20000E7
:102F8000C0F8009044F21000C2F20000016844F260
:102F9000140201310160E06AC2F2000201211368EB
:102FA0008140194300EB8000116006EB8000211D79
:102FB00000F037FA00F070FADAF8000078B13868FB
:102FC000E16AC06A88420AD24EF60450CEF200008E
:102FD0004FF080510160BFF34F8FBFF36F8FBDE89B
:102FE000F087000010B5044690F85100022808BF91
:102FF00010BD012803D038B9206B00F065FA2046D7
:10300000BDE8104000F060BA4FF0500080F3118826
:10301000BFF36F8FBFF34F8FFEE7000044F2080548
:1030200040F26C3A4EF6045844F2EC2744F204069F
:10303000C2F20005C2F2000ACEF200084FF0805939
:10304000C2F20007C2F20006286890B100F002FA4E
:10305000F868C468201D00F099F9306801383060C4
:1030600028680138286000F017FA2046FFF7BAFFF9
:10307000EAE7DAF800000228E6D3C8F80090BFF3C8
:103080004F8FBFF36F8FDFE72DE9F0470A9C824631
:10309000206B16460F46DDE908599100A522984697
:1030A000FDF75AF9206B00EB8600A0F1040020F038
:1030B00007067FB104F13400002100BF7A5C42545E
:1030C0007A5C1AB10F2901F10101F7D1002084F8CF
:1030D000430002E0002084F834000027201D062D64
:1030E00028BF0625E562C4E9115700F079F904F11B
:1030F000180000F075F985F00700A06130465146D0
:10310000424624616462E76484F8507084F8527027
:1031100000F028F9B9F1000F206018BFC9F800408D
:10312000BDE8F08780B544F2D022C2F2000200BFB1
:10313000114612688242FBD34B68D0F804C001EB01
:10314000030E864503D19C440846C1F804C000EB39
:103150000C0393420AD140F26433C2F200031B68AD
:103160009A4203D0D2E90023634443608142026063
:1031700018BF086080BD000008480068006880F340
:1031800008884FF0000080F3148862B661B6BFF380
:103190004F8FBFF36F8F00DF00BF000008ED00E02E
:1031A00081B00020009040F23C00C2F200000068B4
:1031B0004FF0500181F31188BFF36F8FBFF34F8F32
:1031C000013001D0FEE700BF00980028FCD001B01C
:1031D00070470000F0B581B0044600F03BFA40F2C1
:1031E0006430C2F20000016849B144F21801C2F231
:1031F00000010978002918BF4FF0004136E040F285
:10320000F831C2F20001CB1D23F0070311F00702D1
:10321000A1EB030718BF194644F2D023C2F2000302
:103220000026C3E900164FF47053002A18BF07F5B3
:103230007053CA1822F00702A2F10803036042E9A2
:1032400002665A1AC1E9003244F2A021C2F200011A
:103250000A6044F24401C2F200010A6044F218011B
:10326000C2F2000101220A704FF00041002C4FF021
:10327000000567D0214065D124F0070110316207B5
:1032800008BF04F1080100294FF000055AD044F2AC
:103290004406C2F200063268914253D844F2D0226A
:1032A000C2F2000217687B688B420ED23C6844B1C0
:1032B00063683A4627468B4207D23C68002CF7D118
:1032C00003E044F2D022C2F200020068874212D02A
:1032D000156838685B1A112B106012D378184207F2
:1032E0000BD04FF0500080F31188BFF36F8FBFF306
:1032F0004F8F00BFFEE7002524E043607960FFF7B1
:1033000011FF44F2A02178683268C2F200010B6814
:10331000121A9A42326038BF0A6044F21801C2F2AF
:1033200000010978083500294FF0000118BF40F06E
:103330000040396044F2AC21C2F200010A687860B2
:10334000501C086000F08EFB680708D04FF050005A
:1033500080F31188BFF36F8FBFF34F8FFEE72846CE
:1033600001B0F0BD034643F2A110C0F600004FF0DB
:10337000807C21F0010103E903106FF0020043F8A3
:10338000240CA3F1440043F8202C7047D0E901320B
:1033900001699A60D1F804C082688445536008BF0F
:1033A0004A600022026108680138086008687047B6
:1033B00044F24C23C2F20003036044F24800C2F21C
:1033C000000008608020106070474FF0FF31024617
:1033D00042F8081F00214260C0E9032201607047E3
:1033E000002101617047000080B5D1F800C01CF1D8
:1033F000010207D000F1080296465268136863453F
:10340000FAD903E0D0F810E0DEF804204A609160B9
:10341000C1F808E0CEF804100861016801310160CC
:1034200080BDD0F800C0436808619A684B608A602C
:103430009A68996051600CF10101016070470000C9
:10344000DFF80C00016841F4700101607047000072
:1034500088ED00E04FF0500080F31188BFF36F8FCC
:10346000BFF34F8F40F23C00C2F2000001684A1CDB
:10347000026001B170474EF60450CEF200000068C1
:103480000006F7D04FF0500080F31188BFF36F8F24
:10349000BFF34F8FFEE7000040F23C00C2F2000095
:1034A000016839B10139016018BF7047002080F30D
:1034B000118870474FF0500080F31188BFF36F8F71
:1034C000BFF34F8FFEE70000B0B5D0B1044644F221
:1034D0001800C2F20000007854F8041C002818BF3D
:1034E0004FF0004008420DD0A4F108052A6892B1BF
:1034F0004FF0500080F31188BFF36F8FBFF34F8FF1
:10350000FEE7B0BD4FF0500080F31188BFF36F8F1E
:10351000BFF34F8FFEE721EA000044F8040C00F0EF
:1035200099F844F24401C2F2000154F8040C0A680C
:10353000104408602846FFF7F5FD44F2B020C2F2BF
:103540000000016801310160BDE8B04000F08ABAB6
:103550004EF21000CEF2000000210160816040F2C6
:103560003001C2F20001096844F6D352C1F262028E
:10357000A1FB02124FF0FF3101EB921141600721D4
:103580000160704780B5C0B144F20C01C2F2000185
:103590000A6842B14FF0500080F31188BFF36F8F7B
:1035A000BFF34F8FFEE70A6801320A600021FFF780
:1035B00038FC00F057FA00B180BD4EF60450CEF250
:1035C00000004FF080510160BFF34F8FBFF36F8F4A
:1035D00080BD000010B586B0002405A804A903AA88
:1035E000CDE90444FFF7E4FEDDE90320059900235B
:1035F000CDE9010143F21D00C0F6000013A10094C3
:1036000000F034F944F24821C2F200010860D8B158
:103610004FF0500080F31188BFF36F8FBFF34F8FCF
:1036200044F2A420C2F200004FF0FF31016044F2E6
:10363000CC20C2F200000121016044F20030C2F24D
:103640000000046000F050F806B010BD49444C453D
:103650000000000044F20C00C2F2000001680131D9
:103660000160704744F20C00C2F20000006830B103
:1036700044F20430C2F2000001210160704744F2BC
:103680000430C2F200000021016044F21400C2F2D2
:1036900000000068B0FA80F0C0B2C0F11F0040F234
:1036A0006C3100EB8000C2F2000151F820208AB199
:1036B00001EB800151F8040F40680A1D9042086038
:1036C00001D140680860C06840F25C31C2F200017C
:1036D000086070474FF0500080F31188BFF36F8F80
:1036E000BFF34F8FFEE70000B0B584B04EF6005038
:1036F000CEF200004CF27021C4F20F1102684B1C94
:103700009A4208D14FF0500080F31188BFF36F8FB9
:10371000BFF34F8FFEE702688A4208D14FF0500096
:1037200080F31188BFF36F8FBFF34F8FFEE74FF227
:10373000007CCFF6FF7C10F80C2043F6F873029261
:10374000FF2200F80C2010F80C20C2F200038DF8C4
:1037500007209DF8072002F050021A7043F6FC7211
:10376000C2F20002072313609DF90730B3F1FF3F57
:1037700046DC062313609DF80710013B49008DF8D5
:1037800007109DF907100029F4D4022B38D14FF40B
:1037900040711160029900F80C10016A41F4700147
:1037A0000162016A41F070410162FFF7D1FE40F20F
:1037B0003C04C2F2000400252560FFF741FE4EF6EE
:1037C0003470CEF20000016841F040410160FFF723
:1037D000D3FCFFF747FF039520684FF0500181F3BA
:1037E0001188BFF36F8FBFF34F8F013002D000BF3E
:1037F000FEE700BF03980028FCD0002004B0B0BD55
:103800004FF0500080F31188BFF36F8FBFF34F8FDD
:10381000FEE72DE9F04383B0074690009846154631
:103820008946FFF7D7FCE0B106465420FFF7D2FCEB
:10383000A0B10446DDE90A100022266384F8512075
:10384000CDE90010384649462A4643460294FFF720
:103850001BFC2046FFF73AFB012004E03046FFF74F
:1038600033FE4FF0FF3003B0BDE8F08370B586B093
:103870000B9CCCB10C9E06B354250495049D542D8D
:1038800025D1049DDDF828C0022586F8515005ADEC
:103890003463CDE900C50296FFF7F6FB3046FFF72B
:1038A00015FB059806B070BD4FF0500080F31188ED
:1038B000BFF36F8FBFF34F8FFEE74FF0500080F3E1
:1038C0001188BFF36F8FBFF34F8F00BFFEE74FF03C
:1038D000500080F31188BFF36F8FBFF34F8F00BF8D
:1038E000FEE700002DE9F04F81B044F20C00C2F277
:1038F0000000006840B144F2B420C2F20000016848
:10390000002401310160A8E044F20030C2F200005E
:1039100001684E1C06602ED340F26030C2F20000F7
:103920000168096849B14FF0500080F31188BFF376
:103930006F8FBFF34F8F00BFFEE740F26832C2F2D5
:103940000002016813680360116044F2A821C2F20A
:1039500000010A6801320A600168096821B1006843
:10396000C068C068406801E04FF0FF3044F2A42115
:10397000C2F20001086044F2A421C2F2000108680A
:1039800040F25C3A8642C2F2000A01D200244EE0C4
:1039900040F2603BC2F2000BDBF80000002400683C
:1039A000002841D044F214090127C2F2000900BFE7
:1039B000DBF80000C068D0F80C80454655F8040FCD
:1039C00086422CD32846FFF7E1FCD8F8280018B12E
:1039D00008F11800FFF7DAFCD8F82C00D9F800102D
:1039E00007FA00F21143C9F8001040F26C3100EB05
:1039F0008000C2F2000101EB80002946FFF711FDB3
:103A0000D8F82C00DAF80010C96ADBF800208842E8
:103A1000106828BF3C460028CAD14FF0FF3044F25E
:103A2000A421C2F2000101E04FF0FF300860DAF893
:103A3000000040F26C31C06AC2F2000100EB80006D
:103A400051F82000012844F20430C2F2000088BF7F
:103A500001240068002818BF0124204601B0BDE8F9
:103A6000F08F00002DE9F04F81B044F20C04C2F257
:103A70000004206868B1FFF7EDFC20680138206081
:103A8000206880B10024FFF707FD204601B0BDE8A3
:103A9000F08F4FF0500080F31188BFF36F8FBFF3AA
:103AA0004F8F00BFFEE744F20400C2F2000000683E
:103AB0000028E7D044F2B826C2F20006306844F28B
:103AC00004380028C2F2000843D044F2140540F242
:103AD0006C3940F25C3A4FF0010BC2F20005C2F2C1
:103AE0000009C2F2000A00BFF068C76807F11800B9
:103AF000FFF74CFC3C1D2046FFF748FCF86A29689C
:103B00000BFA00F2114300EB8000296009EB800002
:103B10002146FFF786FCF86ADAF80010C96A884285
:103B200028BFC8F800B030680028DDD140F260300E
:103B3000C2F200000168096821B10068C068C0686D
:103B4000406801E04FF0FF3044F2A421C2F20001CE
:103B5000086044F2B424C2F2000425684DB1012685
:103B6000FFF7C0FE08B1C8F80060013DF8D10020A1
:103B70002060D8F8000000283FF484AF4EF60450CF
:103B8000CEF200004FF080510160BFF34F8F01244F
:103B9000BFF36F8F77E7F1EE100A4FF6FF71C0F2B7
:103BA000C03120EA010040F04070E1EE100A704799
:103BB00000000000000000000102030406070809DD
:103BC0000000000001020304000610160006101693
:103BD0006D79494E535461736B000000003C00083E
:103BE0000000002040000000C4010008403C000824
:103BF00040000020C8480000E0010008000000006C
:103C000006020000000000000000000000000000AC
:103C100000640040000000000502000000000000F9
:103C200000000000000000000068004000010000EB
:103C30000024F4000100000010000000AAAAAAAAB3
:040000050800018965
:00000001FF
